{
  "_format": "hh3-artifact-1",
  "contractName": "PredictionMarket",
  "sourceName": "contracts/PredictionMarket.sol",
  "abi": [
    {
      "inputs": [],
      "stateMutability": "nonpayable",
      "type": "constructor"
    },
    {
      "inputs": [
        {
          "internalType": "address",
          "name": "target",
          "type": "address"
        }
      ],
      "name": "AddressEmptyCode",
      "type": "error"
    },
    {
      "inputs": [
        {
          "internalType": "address",
          "name": "implementation",
          "type": "address"
        }
      ],
      "name": "ERC1967InvalidImplementation",
      "type": "error"
    },
    {
      "inputs": [],
      "name": "ERC1967NonPayable",
      "type": "error"
    },
    {
      "inputs": [],
      "name": "FailedCall",
      "type": "error"
    },
    {
      "inputs": [
        {
          "internalType": "uint256",
          "name": "balance",
          "type": "uint256"
        },
        {
          "internalType": "uint256",
          "name": "needed",
          "type": "uint256"
        }
      ],
      "name": "InsufficientBalance",
      "type": "error"
    },
    {
      "inputs": [
        {
          "internalType": "address",
          "name": "received",
          "type": "address"
        },
        {
          "internalType": "address",
          "name": "expected",
          "type": "address"
        }
      ],
      "name": "InvalidAuthor",
      "type": "error"
    },
    {
      "inputs": [],
      "name": "InvalidForwarderAddress",
      "type": "error"
    },
    {
      "inputs": [],
      "name": "InvalidInitialization",
      "type": "error"
    },
    {
      "inputs": [
        {
          "internalType": "address",
          "name": "sender",
          "type": "address"
        },
        {
          "internalType": "address",
          "name": "expected",
          "type": "address"
        }
      ],
      "name": "InvalidSender",
      "type": "error"
    },
    {
      "inputs": [
        {
          "internalType": "bytes32",
          "name": "received",
          "type": "bytes32"
        },
        {
          "internalType": "bytes32",
          "name": "expected",
          "type": "bytes32"
        }
      ],
      "name": "InvalidWorkflowId",
      "type": "error"
    },
    {
      "inputs": [
        {
          "internalType": "bytes10",
          "name": "received",
          "type": "bytes10"
        },
        {
          "internalType": "bytes10",
          "name": "expected",
          "type": "bytes10"
        }
      ],
      "name": "InvalidWorkflowName",
      "type": "error"
    },
    {
      "inputs": [],
      "name": "NotInitializing",
      "type": "error"
    },
    {
      "inputs": [
        {
          "internalType": "address",
          "name": "owner",
          "type": "address"
        }
      ],
      "name": "OwnableInvalidOwner",
      "type": "error"
    },
    {
      "inputs": [
        {
          "internalType": "address",
          "name": "account",
          "type": "address"
        }
      ],
      "name": "OwnableUnauthorizedAccount",
      "type": "error"
    },
    {
      "inputs": [
        {
          "internalType": "address",
          "name": "token",
          "type": "address"
        }
      ],
      "name": "SafeERC20FailedOperation",
      "type": "error"
    },
    {
      "inputs": [],
      "name": "UUPSUnauthorizedCallContext",
      "type": "error"
    },
    {
      "inputs": [
        {
          "internalType": "bytes32",
          "name": "slot",
          "type": "bytes32"
        }
      ],
      "name": "UUPSUnsupportedProxiableUUID",
      "type": "error"
    },
    {
      "inputs": [],
      "name": "WorkflowNameRequiresAuthorValidation",
      "type": "error"
    },
    {
      "anonymous": false,
      "inputs": [
        {
          "indexed": true,
          "internalType": "address",
          "name": "owner",
          "type": "address"
        },
        {
          "indexed": false,
          "internalType": "uint256",
          "name": "amount",
          "type": "uint256"
        }
      ],
      "name": "EmergencyWithdrawETH",
      "type": "event"
    },
    {
      "anonymous": false,
      "inputs": [
        {
          "indexed": true,
          "internalType": "address",
          "name": "owner",
          "type": "address"
        },
        {
          "indexed": true,
          "internalType": "address",
          "name": "token",
          "type": "address"
        },
        {
          "indexed": false,
          "internalType": "uint256",
          "name": "amount",
          "type": "uint256"
        }
      ],
      "name": "EmergencyWithdrawToken",
      "type": "event"
    },
    {
      "anonymous": false,
      "inputs": [
        {
          "indexed": true,
          "internalType": "address",
          "name": "previousAuthor",
          "type": "address"
        },
        {
          "indexed": true,
          "internalType": "address",
          "name": "newAuthor",
          "type": "address"
        }
      ],
      "name": "ExpectedAuthorUpdated",
      "type": "event"
    },
    {
      "anonymous": false,
      "inputs": [
        {
          "indexed": true,
          "internalType": "bytes32",
          "name": "previousId",
          "type": "bytes32"
        },
        {
          "indexed": true,
          "internalType": "bytes32",
          "name": "newId",
          "type": "bytes32"
        }
      ],
      "name": "ExpectedWorkflowIdUpdated",
      "type": "event"
    },
    {
      "anonymous": false,
      "inputs": [
        {
          "indexed": true,
          "internalType": "bytes10",
          "name": "previousName",
          "type": "bytes10"
        },
        {
          "indexed": true,
          "internalType": "bytes10",
          "name": "newName",
          "type": "bytes10"
        }
      ],
      "name": "ExpectedWorkflowNameUpdated",
      "type": "event"
    },
    {
      "anonymous": false,
      "inputs": [
        {
          "indexed": true,
          "internalType": "address",
          "name": "previousForwarder",
          "type": "address"
        },
        {
          "indexed": true,
          "internalType": "address",
          "name": "newForwarder",
          "type": "address"
        }
      ],
      "name": "ForwarderAddressUpdated",
      "type": "event"
    },
    {
      "anonymous": false,
      "inputs": [
        {
          "indexed": false,
          "internalType": "uint64",
          "name": "version",
          "type": "uint64"
        }
      ],
      "name": "Initialized",
      "type": "event"
    },
    {
      "anonymous": false,
      "inputs": [
        {
          "indexed": true,
          "internalType": "uint256",
          "name": "marketId",
          "type": "uint256"
        },
        {
          "indexed": true,
          "internalType": "address",
          "name": "creator",
          "type": "address"
        },
        {
          "indexed": false,
          "internalType": "uint8",
          "name": "outcomeCount",
          "type": "uint8"
        },
        {
          "indexed": false,
          "internalType": "uint256",
          "name": "finishesAt",
          "type": "uint256"
        },
        {
          "indexed": false,
          "internalType": "address",
          "name": "paymentToken",
          "type": "address"
        },
        {
          "indexed": false,
          "internalType": "bytes32",
          "name": "contentHash",
          "type": "bytes32"
        }
      ],
      "name": "MarketCreated",
      "type": "event"
    },
    {
      "anonymous": false,
      "inputs": [
        {
          "indexed": true,
          "internalType": "uint256",
          "name": "marketId",
          "type": "uint256"
        },
        {
          "indexed": false,
          "internalType": "uint8",
          "name": "winningOutcome",
          "type": "uint8"
        },
        {
          "indexed": false,
          "internalType": "uint256",
          "name": "totalPool",
          "type": "uint256"
        },
        {
          "indexed": false,
          "internalType": "uint256",
          "name": "timestamp",
          "type": "uint256"
        }
      ],
      "name": "MarketResolved",
      "type": "event"
    },
    {
      "anonymous": false,
      "inputs": [
        {
          "indexed": true,
          "internalType": "address",
          "name": "previousOwner",
          "type": "address"
        },
        {
          "indexed": true,
          "internalType": "address",
          "name": "newOwner",
          "type": "address"
        }
      ],
      "name": "OwnershipTransferred",
      "type": "event"
    },
    {
      "anonymous": false,
      "inputs": [
        {
          "indexed": true,
          "internalType": "uint256",
          "name": "predictionId",
          "type": "uint256"
        },
        {
          "indexed": true,
          "internalType": "uint256",
          "name": "marketId",
          "type": "uint256"
        },
        {
          "indexed": true,
          "internalType": "address",
          "name": "predictor",
          "type": "address"
        },
        {
          "indexed": false,
          "internalType": "uint8",
          "name": "outcome",
          "type": "uint8"
        },
        {
          "indexed": false,
          "internalType": "uint256",
          "name": "amount",
          "type": "uint256"
        },
        {
          "indexed": false,
          "internalType": "uint256",
          "name": "timestamp",
          "type": "uint256"
        }
      ],
      "name": "PredictionPlaced",
      "type": "event"
    },
    {
      "anonymous": false,
      "inputs": [
        {
          "indexed": false,
          "internalType": "string",
          "name": "message",
          "type": "string"
        }
      ],
      "name": "SecurityWarning",
      "type": "event"
    },
    {
      "anonymous": false,
      "inputs": [
        {
          "indexed": true,
          "internalType": "address",
          "name": "implementation",
          "type": "address"
        }
      ],
      "name": "Upgraded",
      "type": "event"
    },
    {
      "anonymous": false,
      "inputs": [
        {
          "indexed": true,
          "internalType": "uint256",
          "name": "predictionId",
          "type": "uint256"
        },
        {
          "indexed": true,
          "internalType": "address",
          "name": "predictor",
          "type": "address"
        },
        {
          "indexed": false,
          "internalType": "uint256",
          "name": "amount",
          "type": "uint256"
        }
      ],
      "name": "WinningsPaid",
      "type": "event"
    },
    {
      "inputs": [],
      "name": "UPGRADE_INTERFACE_VERSION",
      "outputs": [
        {
          "internalType": "string",
          "name": "",
          "type": "string"
        }
      ],
      "stateMutability": "view",
      "type": "function"
    },
    {
      "inputs": [
        {
          "internalType": "uint256",
          "name": "_marketId",
          "type": "uint256"
        },
        {
          "internalType": "uint8",
          "name": "_outcome",
          "type": "uint8"
        },
        {
          "internalType": "uint256",
          "name": "_amount",
          "type": "uint256"
        }
      ],
      "name": "calculatePotentialWinnings",
      "outputs": [
        {
          "internalType": "uint256",
          "name": "",
          "type": "uint256"
        }
      ],
      "stateMutability": "view",
      "type": "function"
    },
    {
      "inputs": [
        {
          "internalType": "uint256",
          "name": "_predictionId",
          "type": "uint256"
        }
      ],
      "name": "calculateWinnings",
      "outputs": [
        {
          "internalType": "uint256",
          "name": "",
          "type": "uint256"
        }
      ],
      "stateMutability": "view",
      "type": "function"
    },
    {
      "inputs": [
        {
          "internalType": "uint8",
          "name": "_outcomeCount",
          "type": "uint8"
        },
        {
          "internalType": "uint256",
          "name": "_finishesAt",
          "type": "uint256"
        },
        {
          "internalType": "address",
          "name": "_paymentToken",
          "type": "address"
        }
      ],
      "name": "createMarket",
      "outputs": [
        {
          "internalType": "uint256",
          "name": "",
          "type": "uint256"
        }
      ],
      "stateMutability": "nonpayable",
      "type": "function"
    },
    {
      "inputs": [
        {
          "internalType": "uint256",
          "name": "_amount",
          "type": "uint256"
        }
      ],
      "name": "emergencyWithdrawETH",
      "outputs": [],
      "stateMutability": "nonpayable",
      "type": "function"
    },
    {
      "inputs": [
        {
          "internalType": "address",
          "name": "_token",
          "type": "address"
        },
        {
          "internalType": "uint256",
          "name": "_amount",
          "type": "uint256"
        }
      ],
      "name": "emergencyWithdrawToken",
      "outputs": [],
      "stateMutability": "nonpayable",
      "type": "function"
    },
    {
      "inputs": [],
      "name": "getExpectedAuthor",
      "outputs": [
        {
          "internalType": "address",
          "name": "",
          "type": "address"
        }
      ],
      "stateMutability": "view",
      "type": "function"
    },
    {
      "inputs": [],
      "name": "getExpectedWorkflowId",
      "outputs": [
        {
          "internalType": "bytes32",
          "name": "",
          "type": "bytes32"
        }
      ],
      "stateMutability": "view",
      "type": "function"
    },
    {
      "inputs": [],
      "name": "getExpectedWorkflowName",
      "outputs": [
        {
          "internalType": "bytes10",
          "name": "",
          "type": "bytes10"
        }
      ],
      "stateMutability": "view",
      "type": "function"
    },
    {
      "inputs": [],
      "name": "getForwarderAddress",
      "outputs": [
        {
          "internalType": "address",
          "name": "",
          "type": "address"
        }
      ],
      "stateMutability": "view",
      "type": "function"
    },
    {
      "inputs": [
        {
          "internalType": "uint256",
          "name": "_marketId",
          "type": "uint256"
        }
      ],
      "name": "getMarket",
      "outputs": [
        {
          "components": [
            {
              "internalType": "uint256",
              "name": "id",
              "type": "uint256"
            },
            {
              "internalType": "uint8",
              "name": "outcomeCount",
              "type": "uint8"
            },
            {
              "internalType": "uint256[]",
              "name": "outcomePools",
              "type": "uint256[]"
            },
            {
              "internalType": "uint256",
              "name": "totalPool",
              "type": "uint256"
            },
            {
              "internalType": "uint256",
              "name": "finishesAt",
              "type": "uint256"
            },
            {
              "internalType": "uint8",
              "name": "winningOutcome",
              "type": "uint8"
            },
            {
              "internalType": "bool",
              "name": "isResolved",
              "type": "bool"
            },
            {
              "internalType": "address",
              "name": "creator",
              "type": "address"
            },
            {
              "internalType": "address",
              "name": "paymentToken",
              "type": "address"
            },
            {
              "internalType": "bytes32",
              "name": "contentHash",
              "type": "bytes32"
            }
          ],
          "internalType": "struct PredictionMarket.Market",
          "name": "",
          "type": "tuple"
        }
      ],
      "stateMutability": "view",
      "type": "function"
    },
    {
      "inputs": [
        {
          "internalType": "uint256",
          "name": "_marketId",
          "type": "uint256"
        }
      ],
      "name": "getMarketPredictions",
      "outputs": [
        {
          "internalType": "uint256[]",
          "name": "",
          "type": "uint256[]"
        }
      ],
      "stateMutability": "view",
      "type": "function"
    },
    {
      "inputs": [
        {
          "internalType": "uint256",
          "name": "_predictionId",
          "type": "uint256"
        }
      ],
      "name": "getPrediction",
      "outputs": [
        {
          "components": [
            {
              "internalType": "uint256",
              "name": "marketId",
              "type": "uint256"
            },
            {
              "internalType": "address",
              "name": "predictor",
              "type": "address"
            },
            {
              "internalType": "uint8",
              "name": "outcome",
              "type": "uint8"
            },
            {
              "internalType": "uint256",
              "name": "amount",
              "type": "uint256"
            }
          ],
          "internalType": "struct PredictionMarket.Prediction",
          "name": "",
          "type": "tuple"
        }
      ],
      "stateMutability": "view",
      "type": "function"
    },
    {
      "inputs": [
        {
          "internalType": "address",
          "name": "_user",
          "type": "address"
        }
      ],
      "name": "getUserPredictions",
      "outputs": [
        {
          "internalType": "uint256[]",
          "name": "",
          "type": "uint256[]"
        }
      ],
      "stateMutability": "view",
      "type": "function"
    },
    {
      "inputs": [
        {
          "internalType": "address",
          "name": "_forwarderAddress",
          "type": "address"
        }
      ],
      "name": "initialize",
      "outputs": [],
      "stateMutability": "nonpayable",
      "type": "function"
    },
    {
      "inputs": [],
      "name": "marketCount",
      "outputs": [
        {
          "internalType": "uint256",
          "name": "",
          "type": "uint256"
        }
      ],
      "stateMutability": "view",
      "type": "function"
    },
    {
      "inputs": [
        {
          "internalType": "uint256",
          "name": "",
          "type": "uint256"
        },
        {
          "internalType": "uint256",
          "name": "",
          "type": "uint256"
        }
      ],
      "name": "marketPredictions",
      "outputs": [
        {
          "internalType": "uint256",
          "name": "",
          "type": "uint256"
        }
      ],
      "stateMutability": "view",
      "type": "function"
    },
    {
      "inputs": [
        {
          "internalType": "uint256",
          "name": "",
          "type": "uint256"
        }
      ],
      "name": "markets",
      "outputs": [
        {
          "internalType": "uint256",
          "name": "id",
          "type": "uint256"
        },
        {
          "internalType": "uint8",
          "name": "outcomeCount",
          "type": "uint8"
        },
        {
          "internalType": "uint256",
          "name": "totalPool",
          "type": "uint256"
        },
        {
          "internalType": "uint256",
          "name": "finishesAt",
          "type": "uint256"
        },
        {
          "internalType": "uint8",
          "name": "winningOutcome",
          "type": "uint8"
        },
        {
          "internalType": "bool",
          "name": "isResolved",
          "type": "bool"
        },
        {
          "internalType": "address",
          "name": "creator",
          "type": "address"
        },
        {
          "internalType": "address",
          "name": "paymentToken",
          "type": "address"
        },
        {
          "internalType": "bytes32",
          "name": "contentHash",
          "type": "bytes32"
        }
      ],
      "stateMutability": "view",
      "type": "function"
    },
    {
      "inputs": [
        {
          "internalType": "bytes",
          "name": "metadata",
          "type": "bytes"
        },
        {
          "internalType": "bytes",
          "name": "report",
          "type": "bytes"
        }
      ],
      "name": "onReport",
      "outputs": [],
      "stateMutability": "nonpayable",
      "type": "function"
    },
    {
      "inputs": [],
      "name": "owner",
      "outputs": [
        {
          "internalType": "address",
          "name": "",
          "type": "address"
        }
      ],
      "stateMutability": "view",
      "type": "function"
    },
    {
      "inputs": [
        {
          "internalType": "uint256",
          "name": "_marketId",
          "type": "uint256"
        },
        {
          "internalType": "uint8",
          "name": "_outcome",
          "type": "uint8"
        },
        {
          "internalType": "uint256",
          "name": "_amount",
          "type": "uint256"
        }
      ],
      "name": "predict",
      "outputs": [],
      "stateMutability": "payable",
      "type": "function"
    },
    {
      "inputs": [],
      "name": "predictionCount",
      "outputs": [
        {
          "internalType": "uint256",
          "name": "",
          "type": "uint256"
        }
      ],
      "stateMutability": "view",
      "type": "function"
    },
    {
      "inputs": [
        {
          "internalType": "uint256",
          "name": "",
          "type": "uint256"
        }
      ],
      "name": "predictions",
      "outputs": [
        {
          "internalType": "uint256",
          "name": "marketId",
          "type": "uint256"
        },
        {
          "internalType": "address",
          "name": "predictor",
          "type": "address"
        },
        {
          "internalType": "uint8",
          "name": "outcome",
          "type": "uint8"
        },
        {
          "internalType": "uint256",
          "name": "amount",
          "type": "uint256"
        }
      ],
      "stateMutability": "view",
      "type": "function"
    },
    {
      "inputs": [],
      "name": "proxiableUUID",
      "outputs": [
        {
          "internalType": "bytes32",
          "name": "",
          "type": "bytes32"
        }
      ],
      "stateMutability": "view",
      "type": "function"
    },
    {
      "inputs": [],
      "name": "renounceOwnership",
      "outputs": [],
      "stateMutability": "nonpayable",
      "type": "function"
    },
    {
      "inputs": [
        {
          "internalType": "uint256",
          "name": "_marketId",
          "type": "uint256"
        },
        {
          "internalType": "uint8",
          "name": "_winningOutcome",
          "type": "uint8"
        }
      ],
      "name": "resolveMarket",
      "outputs": [],
      "stateMutability": "nonpayable",
      "type": "function"
    },
    {
      "inputs": [
        {
          "internalType": "address",
          "name": "_author",
          "type": "address"
        }
      ],
      "name": "setExpectedAuthor",
      "outputs": [],
      "stateMutability": "nonpayable",
      "type": "function"
    },
    {
      "inputs": [
        {
          "internalType": "bytes32",
          "name": "_id",
          "type": "bytes32"
        }
      ],
      "name": "setExpectedWorkflowId",
      "outputs": [],
      "stateMutability": "nonpayable",
      "type": "function"
    },
    {
      "inputs": [
        {
          "internalType": "string",
          "name": "_name",
          "type": "string"
        }
      ],
      "name": "setExpectedWorkflowName",
      "outputs": [],
      "stateMutability": "nonpayable",
      "type": "function"
    },
    {
      "inputs": [
        {
          "internalType": "address",
          "name": "_forwarder",
          "type": "address"
        }
      ],
      "name": "setForwarderAddress",
      "outputs": [],
      "stateMutability": "nonpayable",
      "type": "function"
    },
    {
      "inputs": [
        {
          "internalType": "bytes4",
          "name": "interfaceId",
          "type": "bytes4"
        }
      ],
      "name": "supportsInterface",
      "outputs": [
        {
          "internalType": "bool",
          "name": "",
          "type": "bool"
        }
      ],
      "stateMutability": "view",
      "type": "function"
    },
    {
      "inputs": [
        {
          "internalType": "address",
          "name": "newOwner",
          "type": "address"
        }
      ],
      "name": "transferOwnership",
      "outputs": [],
      "stateMutability": "nonpayable",
      "type": "function"
    },
    {
      "inputs": [
        {
          "internalType": "address",
          "name": "newImplementation",
          "type": "address"
        },
        {
          "internalType": "bytes",
          "name": "data",
          "type": "bytes"
        }
      ],
      "name": "upgradeToAndCall",
      "outputs": [],
      "stateMutability": "payable",
      "type": "function"
    },
    {
      "inputs": [
        {
          "internalType": "address",
          "name": "",
          "type": "address"
        },
        {
          "internalType": "uint256",
          "name": "",
          "type": "uint256"
        }
      ],
      "name": "userPredictions",
      "outputs": [
        {
          "internalType": "uint256",
          "name": "",
          "type": "uint256"
        }
      ],
      "stateMutability": "view",
      "type": "function"
    }
  ],
  "bytecode": "0x60a060405230608052348015610013575f5ffd5b5061001c610029565b610024610029565b6100db565b7ff0c57e16840df040f15088dc2f81fe391c3923bec73e23a9662efc9c229c6a00805468010000000000000000900460ff16156100795760405163f92ee8a960e01b815260040160405180910390fd5b80546001600160401b03908116146100d85780546001600160401b0319166001600160401b0390811782556040519081527fc7f505b2f371ae2175ee4913f4499e1f2633a7b5936321eed1cdaeb6115181d29060200160405180910390a15b50565b6080516132836101015f395f8181611b8a01528181611bb30152611f7101526132835ff3fe6080604052600436106101b4575f3560e01c8063a4c3b091116100ea578063d60c884b1161008e578063d60c884b146105f2578063d777cc6d14610611578063df55406e14610630578063eb44fdd31461064f578063ec9790821461067b578063f2fde38b14610690578063f5c793ef146106af578063f6c33179146106c3578063fe83bece146106e2575f5ffd5b8063a4c3b0911461041b578063a619d8181461043a578063ad3cb1cc1461046c578063b1283e77146104a9578063bc1fc27a14610576578063c285f85314610595578063c3c44ac2146105b4578063c4d66de8146105d3575f5ffd5b806350ae97161161015c57806350ae97161461033b57806352d1902d1461034e5780636b792c4b146103625780636dffbcb714610381578063715018a6146103a0578063805f2132146103b45780638da5cb5b146103d35780638e0596a2146103e7578063a2e279eb146103fc575f5ffd5b80624fbbb0146101b857806301ffc9a71461023d5780633397cf671461026c5780633441856f146102925780633c86e61b146102ae57806341fdb485146102da5780634a7724d0146103075780634f1ef28614610326575b5f5ffd5b3480156101c3575f5ffd5b506102086101d2366004612a8a565b60386020525f908152604090208054600182015460029092015490916001600160a01b03811691600160a01b90910460ff169084565b604080519485526001600160a01b03909316602085015260ff9091169183019190915260608201526080015b60405180910390f35b348015610248575f5ffd5b5061025c610257366004612aa1565b6107b2565b6040519015158152602001610234565b348015610277575f5ffd5b506001546001600160a01b03165b6040516102349190612acf565b34801561029d575f5ffd5b505f546001600160a01b0316610285565b3480156102b9575f5ffd5b506102cd6102c8366004612a8a565b6107e8565b6040516102349190612ae3565b3480156102e5575f5ffd5b506102f96102f4366004612b3a565b610873565b604051908152602001610234565b348015610312575f5ffd5b506102f9610321366004612b81565b610963565b610339610334366004612bd2565b610981565b005b610339610349366004612b3a565b6109a0565b348015610359575f5ffd5b506102f9610baf565b34801561036d575f5ffd5b5061033961037c366004612a8a565b610bca565b34801561038c575f5ffd5b506102f961039b366004612c95565b610ca9565b3480156103ab575f5ffd5b50610339610cd4565b3480156103bf575f5ffd5b506103396103ce366004612cf9565b610ce7565b3480156103de575f5ffd5b50610285610f15565b3480156103f2575f5ffd5b506102f960365481565b348015610407575f5ffd5b506102f9610416366004612a8a565b610f43565b348015610426575f5ffd5b50610339610435366004612d63565b610ffe565b348015610445575f5ffd5b50600154600160a01b900460b01b6040516001600160b01b03199091168152602001610234565b348015610477575f5ffd5b5061049c604051806040016040528060058152602001640352e302e360dc1b81525081565b6040516102349190612d8d565b3480156104b4575f5ffd5b5061051f6104c3366004612a8a565b60376020525f90815260409020805460018201546003830154600484015460058501546006860154600790960154949560ff948516959394929382841693610100840416926001600160a01b0362010000909104811692169089565b60408051998a5260ff98891660208b01528901969096526060880194909452949091166080860152151560a08501526001600160a01b0392831660c08501529190911660e083015261010082015261012001610234565b348015610581575f5ffd5b50610339610590366004612dc2565b6111a5565b3480156105a0575f5ffd5b506102cd6105af366004612e00565b61137f565b3480156105bf575f5ffd5b506103396105ce366004612a8a565b6113e8565b3480156105de575f5ffd5b506103396105ed366004612e00565b611428565b3480156105fd575f5ffd5b5061033961060c366004612e00565b61151f565b34801561061c575f5ffd5b5061033961062b366004612e00565b611578565b34801561063b575f5ffd5b5061033961064a366004612e1b565b61166b565b34801561065a575f5ffd5b5061066e610669366004612a8a565b611799565b6040516102349190612e7f565b348015610686575f5ffd5b506102f960355481565b34801561069b575f5ffd5b506103396106aa366004612e00565b611907565b3480156106ba575f5ffd5b506002546102f9565b3480156106ce575f5ffd5b506102f96106dd366004612d63565b611944565b3480156106ed575f5ffd5b506107736106fc366004612a8a565b604080516080810182525f808252602082018190529181018290526060810191909152505f9081526038602090815260409182902082516080810184528154815260018201546001600160a01b03811693820193909352600160a01b90920460ff1692820192909252600290910154606082015290565b6040516102349190815181526020808301516001600160a01b03169082015260408083015160ff16908201526060918201519181019190915260800190565b5f6001600160e01b0319821663402f909960e11b14806107e257506001600160e01b031982166301ffc9a760e01b145b92915050565b60608160355481106108155760405162461bcd60e51b815260040161080c90612f37565b60405180910390fd5b5f838152603a60209081526040918290208054835181840281018401909452808452909183018282801561086657602002820191905f5260205f20905b815481526020019060010190808311610852575b5050505050915050919050565b5f8360355481106108965760405162461bcd60e51b815260040161080c90612f37565b5f858152603760205260409020600181015460ff908116908616106108cd5760405162461bcd60e51b815260040161080c90612f66565b5f84116108ec5760405162461bcd60e51b815260040161080c90612f8f565b5f84826002018760ff168154811061090657610906612fc6565b905f5260205f2001546109199190612fee565b90505f85836003015461092c9190612fee565b9050815f03610940575f945050505061095b565b8161094b8288613001565b6109559190613018565b94505050505b509392505050565b5f61096c61195d565b610979848484335f61198f565b949350505050565b610989611b7f565b61099282611c23565b61099c8282611c2b565b5050565b8260355481106109c25760405162461bcd60e51b815260040161080c90612f37565b5f848152603760205260409020600501548490610100900460ff16156109fa5760405162461bcd60e51b815260040161080c90613037565b5f8581526037602052604090206004810154421115610a4d5760405162461bcd60e51b815260206004820152600f60248201526e13585c9ad95d08199a5b9a5cda1959608a1b604482015260640161080c565b600181015460ff90811690861610610a775760405162461bcd60e51b815260040161080c90612f66565b60068101545f906001600160a01b0316610adc575f3411610ad55760405162461bcd60e51b8152602060048201526018602482015277135d5cdd081cd95b9908115512081d1bc81c1c99591a58dd60421b604482015260640161080c565b5034610b9a565b3415610b345760405162461bcd60e51b815260206004820152602160248201527f446f206e6f742073656e642045544820666f7220746f6b656e206d61726b65746044820152607360f81b606482015260840161080c565b5f8511610b7d5760405162461bcd60e51b8152602060048201526017602482015276135d5cdd081cdc1958da599e4818995d08185b5bdd5b9d604a1b604482015260640161080c565b5060068101548490610b9a906001600160a01b0316333084611ce3565b610ba633888884611d10565b50505050505050565b5f610bb8611f66565b505f51602061322e5f395f51905f5290565b610bd261195d565b5f8111610bf15760405162461bcd60e51b815260040161080c90612f8f565b80471015610c415760405162461bcd60e51b815260206004820152601d60248201527f496e73756666696369656e7420636f6e74726163742062616c616e6365000000604482015260640161080c565b610c5c81610c4d610f15565b6001600160a01b031690611faf565b610c64610f15565b6001600160a01b03167f20f907b58305c7b76035bc03b26f32b1c4f6560f96be6f3bb54c5c848a2d4ddd82604051610c9e91815260200190565b60405180910390a250565b603a602052815f5260405f208181548110610cc2575f80fd5b905f5260205f20015f91509150505481565b610cdc61195d565b610ce55f612022565b565b5f546001600160a01b031615801590610d0a57505f546001600160a01b03163314155b15610d3c575f5460405163708986dd60e11b81523360048201526001600160a01b03909116602482015260440161080c565b600254151580610d5657506001546001600160a01b031615155b80610d765750600154600160a01b900460b01b6001600160b01b03191615155b15610f05575f5f5f610dbc87878080601f0160208091040260200160405190810160405280939291908181526020018383808284375f9201919091525061209292505050565b600254929550909350915015801590610dd757506002548314155b15610e0357600254604051634dfd1cdd60e11b815261080c918591600401918252602082015260400190565b6001546001600160a01b031615801590610e2b57506001546001600160a01b03828116911614155b15610e6057600154604051631715315f60e31b81526001600160a01b038084166004830152909116602482015260440161080c565b600154600160a01b900460b01b6001600160b01b03191615610f01576001546001600160a01b0316610ea557604051634847901160e01b815260040160405180910390fd5b6001546001600160b01b0319838116600160a01b90920460b01b1614610f015760015460405163362304d360e11b81526001600160b01b03198481166004830152600160a01b90920460b01b909116602482015260440161080c565b5050505b610f0f82826120ab565b50505050565b7f9016d09d72d40fdae2fd8ceac6b6234c7706214fd39c1cd1e609a0528c199300546001600160a01b031690565b5f81815260386020908152604080832080548452603790925282206005810154610100900460ff161580610f8d575060058101546001830154600160a01b900460ff908116911614155b15610f9b57505f9392505050565b60058101546002820180545f9260ff16908110610fba57610fba612fc6565b905f5260205f2001549050805f03610fd657505f949350505050565b8082600301548460020154610feb9190613001565b610ff59190613018565b95945050505050565b61100661195d565b6001600160a01b0382166110545760405162461bcd60e51b8152602060048201526015602482015274496e76616c696420746f6b656e206164647265737360581b604482015260640161080c565b5f81116110735760405162461bcd60e51b815260040161080c90612f8f565b6040516370a0823160e01b8152829082906001600160a01b038316906370a08231906110a3903090600401612acf565b602060405180830381865afa1580156110be573d5f5f3e3d5ffd5b505050506040513d601f19601f820116820180604052508101906110e29190613068565b10156111305760405162461bcd60e51b815260206004820152601a60248201527f496e73756666696369656e7420746f6b656e2062616c616e6365000000000000604482015260640161080c565b61114c61113b610f15565b6001600160a01b0383169084612272565b826001600160a01b031661115e610f15565b6001600160a01b03167fda0612d7ca9ff90ca7143a6021ba8938994f8d045b2834ae585fd07b27ea697c8460405161119891815260200190565b60405180910390a3505050565b6111ad61195d565b600154600160a01b900460b01b5f8290036112105760018054600160a01b600160f01b03191690556040515f906001600160b01b03198316907f1e7ddd09d504c82dcfc784a464b167469f5aad967606ec4822d848ef9141dfa5908390a3505050565b5f6002848460405161122392919061307f565b602060405180830381855afa15801561123e573d5f5f3e3d5ffd5b5050506040513d601f19601f820116820180604052508101906112619190613068565b90505f61128e8260405160200161127a91815260200190565b60405160208183030381529060405261229e565b60408051600a8082528183019092529192505f91906020820181803683370190505090505f5b600a81101561130a578281815181106112cf576112cf612fc6565b602001015160f81c60f81b8282815181106112ec576112ec612fc6565b60200101906001600160f81b03191690815f1a9053506001016112b4565b506113148161308e565b60018054600160a01b600160f01b031916600160a01b60b093841c81029190911791829055604051910490911b6001600160b01b031990811691908616907f1e7ddd09d504c82dcfc784a464b167469f5aad967606ec4822d848ef9141dfa5905f90a3505050505050565b6001600160a01b0381165f908152603960209081526040918290208054835181840281018401909452808452606093928301828280156113dc57602002820191905f5260205f20905b8154815260200190600101908083116113c8575b50505050509050919050565b6113f061195d565b6002805490829055604051829082907f0dbedcdf21925e053b4c574eae180d7f2883235ab4976ecc0873598a2a999b03905f90a35050565b5f61143161245a565b805490915060ff600160401b82041615906001600160401b03165f811580156114575750825b90505f826001600160401b031660011480156114725750303b155b905081158015611480575080155b1561149e5760405163f92ee8a960e01b815260040160405180910390fd5b845467ffffffffffffffff1916600117855583156114c857845460ff60401b1916600160401b1785555b6114d186612482565b831561151757845460ff60401b19168555604051600181527fc7f505b2f371ae2175ee4913f4499e1f2633a7b5936321eed1cdaeb6115181d29060200160405180910390a15b505050505050565b61152761195d565b600180546001600160a01b038381166001600160a01b0319831681179093556040519116919082907f3321cda85c145617e47418aa14255e9dcbec53a753778e57591703b89a3cad31905f90a35050565b61158061195d565b5f546001600160a01b0390811690821661161d577f704da7db165c79c1e33d542c079333bbde970a733032d2f95fec8fb7d770cbf76040516116149060208082526038908201527f466f7277617264657220616464726573732073657420746f207a65726f202d20604082015277636f6e7472616374206973206e6f7720494e53454355524560401b606082015260800190565b60405180910390a15b5f80546001600160a01b0319166001600160a01b0384811691821783556040519192908416917f039ad854736757070884dd787ef1a7f58db33546639d1f3efddcf4a33fb8997e9190a35050565b61167361195d565b8160355481106116955760405162461bcd60e51b815260040161080c90612f37565b5f838152603760205260409020600501548390610100900460ff16156116cd5760405162461bcd60e51b815260040161080c90613037565b5f848152603760205260409020600501546201000090046001600160a01b031633146117365760405162461bcd60e51b81526020600482015260186024820152774f6e6c792063726561746f722063616e207265736f6c766560401b604482015260640161080c565b5f84815260376020526040902060040154421161178f5760405162461bcd60e51b815260206004820152601760248201527613585c9ad95d081b9bdd08199a5b9a5cda1959081e595d604a1b604482015260640161080c565b610f0f8484612503565b6118006040518061014001604052805f81526020015f60ff168152602001606081526020015f81526020015f81526020015f60ff1681526020015f151581526020015f6001600160a01b031681526020015f6001600160a01b031681526020015f81525090565b8160355481106118225760405162461bcd60e51b815260040161080c90612f37565b5f8381526037602090815260409182902082516101408101845281548152600182015460ff168184015260028201805485518186028101860187528181529395929486949386019392919083018282801561189a57602002820191905f5260205f20905b815481526020019060010190808311611886575b50505091835250506003820154602082015260048201546040820152600582015460ff8082166060840152610100820416151560808301526201000090046001600160a01b0390811660a083015260068301541660c082015260079091015460e090910152949350505050565b61190f61195d565b6001600160a01b038116611938575f604051631e4fbdf760e01b815260040161080c9190612acf565b61194181612022565b50565b6039602052815f5260405f208181548110610cc2575f80fd5b33611966610f15565b6001600160a01b031614610ce5573360405163118cdaa760e01b815260040161080c9190612acf565b5f60028660ff1610156119e45760405162461bcd60e51b815260206004820152601d60248201527f4d7573742068617665206174206c656173742032206f7574636f6d6573000000604482015260640161080c565b428511611a3d5760405162461bcd60e51b815260206004820152602160248201527f46696e6973682074696d65206d75737420626520696e207468652066757475726044820152606560f81b606482015260840161080c565b603580545f9182611a4d836130cc565b909155505f81815260376020526040902081815560018101805460ff191660ff8b16908117909155919250906001600160401b03811115611a9057611a90612bbe565b604051908082528060200260200182016040528015611ab9578160200160208202803683370190505b508051611ad0916002840191602090910190612a2d565b505f6003820155600481018790556005810180546001600160b01b031916620100006001600160a01b03888116918202929092179092556006830180546001600160a01b0319169189169182179055600783018690556040805160ff8c168152602081018b9052908101919091526060810186905283907f606a57169a52affdbe4fb1640df462fc1775a7d36d72286710507490ee1392569060800160405180910390a3509695505050505050565b306001600160a01b037f0000000000000000000000000000000000000000000000000000000000000000161480611c0557507f00000000000000000000000000000000000000000000000000000000000000006001600160a01b0316611bf95f51602061322e5f395f51905f52546001600160a01b031690565b6001600160a01b031614155b15610ce55760405163703e46dd60e11b815260040160405180910390fd5b61194161195d565b816001600160a01b03166352d1902d6040518163ffffffff1660e01b8152600401602060405180830381865afa925050508015611c85575060408051601f3d908101601f19168201909252611c8291810190613068565b60015b611ca45781604051634c9c8ce360e01b815260040161080c9190612acf565b5f51602061322e5f395f51905f528114611cd457604051632a87526960e21b81526004810182905260240161080c565b611cde8383612746565b505050565b611cf184848484600161279b565b610f0f5783604051635274afe760e01b815260040161080c9190612acf565b5f8381526037602052604090206001600160a01b038516611d6f5760405162461bcd60e51b8152602060048201526019602482015278496e76616c696420707265646963746f72206164647265737360381b604482015260640161080c565b600181015460ff90811690841610611d995760405162461bcd60e51b815260040161080c90612f66565b5f8211611db85760405162461bcd60e51b815260040161080c90612f8f565b80600401544210611e015760405162461bcd60e51b815260206004820152601360248201527213585c9ad95d081a185cc8199a5b9a5cda1959606a1b604482015260640161080c565b603654604080516080810182528681526001600160a01b03808916602080840182815260ff808b16868801818152606088018c81525f8b8152603887528a812099518a5594516001808b0180549451909616600160a01b026001600160a81b031990941691909916179190911790925590516002968701559281526039825285812080548086018255908252828220018790558a8152603a825294852080549384018155855290932001839055830180548592908110611ec357611ec3612fc6565b905f5260205f20015f828254611ed99190612fee565b9250508190555082826003015f828254611ef39190612fee565b909155505060368054905f611f07836130cc565b90915550506040805160ff8616815260208101859052428183015290516001600160a01b03881691879184917ff71596fe917277a92c152c720b67dda8f6ce2c015dcb9d41677b1f6b54d4ea3a919081900360600190a4505050505050565b306001600160a01b037f00000000000000000000000000000000000000000000000000000000000000001614610ce55760405163703e46dd60e11b815260040160405180910390fd5b80471015611fd95760405163cf47918160e01b81524760048201526024810182905260440161080c565b611ff2828260405180602001604052805f815250612808565b15611ffb575050565b3d156120095761099c61281d565b60405163d6bda27560e01b815260040160405180910390fd5b7f9016d09d72d40fdae2fd8ceac6b6234c7706214fd39c1cd1e609a0528c19930080546001600160a01b031981166001600160a01b03848116918217845560405192169182907f8be0079c531659141344cd1fd0a4f28419497f9722a3daafe3b4186f6b6457e0905f90a3505050565b60208101516040820151604a83015160601c9193909250565b5f6120b960208284866130e4565b8101906120c6919061310b565b90508060ff165f0361216c575f808080806120e387890189613124565b5f84815260376020526040902060060154949a50929850909650945092506001600160a01b0380841691161490506121565760405162461bcd60e51b81526020600482015260166024820152750a0c2f2dacadce840e8ded6cadc40dad2e6dac2e8c6d60531b604482015260640161080c565b61216285858585611d10565b5050505050505050565b8060ff166001036121f2575f806121858486018661318c565b925092505060355482106121ab5760405162461bcd60e51b815260040161080c90612f37565b5f82815260376020526040902060050154610100900460ff16156121e15760405162461bcd60e51b815260040161080c90613037565b6121eb8282612503565b5050505050565b8060ff16600203612231575f8080808061220e878901896131c5565b9550955095509550955050612226858585858561198f565b505050505050505050565b60405162461bcd60e51b8152602060048201526016602482015275496e76616c6964206f7065726174696f6e207479706560501b604482015260640161080c565b61227f8383836001612828565b611cde5782604051635274afe760e01b815260040161080c9190612acf565b60605f825160026122af9190613001565b6001600160401b038111156122c6576122c6612bbe565b6040519080825280601f01601f1916602001820160405280156122f0576020820181803683370190505b5090505f5b8351811015612453576040518060400160405280601081526020016f181899199a1a9b1b9c1cb0b131b232b360811b815250600485838151811061233b5761233b612fc6565b016020015182516001600160f81b031990911690911c60f81c90811061236357612363612fc6565b01602001516001600160f81b0319168261237e836002613001565b8151811061238e5761238e612fc6565b60200101906001600160f81b03191690815f1a9053506040518060400160405280601081526020016f181899199a1a9b1b9c1cb0b131b232b360811b8152508482815181106123df576123df612fc6565b602091010151815160f89190911c600f169081106123ff576123ff612fc6565b01602001516001600160f81b0319168261241a836002613001565b612425906001612fee565b8151811061243557612435612fc6565b60200101906001600160f81b03191690815f1a9053506001016122f5565b5092915050565b5f807ff0c57e16840df040f15088dc2f81fe391c3923bec73e23a9662efc9c229c6a006107e2565b61248a61288a565b612493336128af565b6001600160a01b0381166124b95760405162e0775560e61b815260040160405180910390fd5b5f80546001600160a01b0319166001600160a01b03831690811782556040519091907f039ad854736757070884dd787ef1a7f58db33546639d1f3efddcf4a33fb8997e908290a350565b5f8281526037602052604090206001015460ff908116908216106125395760405162461bcd60e51b815260040161080c90612f66565b5f8281526037602090815260409182902060058101805460ff861661ffff199091168117610100179091556003820154845191825292810192909252429282019290925283907f503d167e0856e2f40aaac2dac6550f9543efb837691cc189cde53b0172e4f32b9060600160405180910390a25f838152603a60209081526040808320805482518185028101850190935280835291929091908301828280156125ff57602002820191905f5260205f20905b8154815260200190600101908083116125eb575b505050505090505f826002018460ff168154811061261f5761261f612fc6565b905f5260205f2001549050805f03612638575050505050565b5f5b8251811015611517575f60385f85848151811061265957612659612fc6565b602002602001015181526020019081526020015f2090508560ff168160010160149054906101000a900460ff1660ff160361273d575f6126b18584815181106126a4576126a4612fc6565b6020026020010151610f43565b600687015460018401549192506126d5916001600160a01b039182169116836128c0565b600182015485516001600160a01b03909116908690859081106126fa576126fa612fc6565b60200260200101517f0c1d0b01dca2a1254c5ae35fc7cc488d6369384dd03afd78bd9484231d4a66ec8360405161273391815260200190565b60405180910390a3505b5060010161263a565b61274f826128f5565b6040516001600160a01b038316907fbc7cd75a20ee27fd9adebab32041f755214dbc6bffa90cc0225b39da2e5c2d3b905f90a280511561279357611cde828261294f565b61099c6129c1565b6040516323b872dd60e01b5f8181526001600160a01b038781166004528616602452604485905291602083606481808c5af1925060015f511483166127f75783831516156127eb573d5f823e3d81fd5b5f883b113d1516831692505b604052505f60605295945050505050565b5f5f5f83516020850186885af1949350505050565b6040513d5f823e3d81fd5b60405163a9059cbb60e01b5f8181526001600160a01b038616600452602485905291602083604481808b5af1925060015f5114831661287e578383151615612872573d5f823e3d81fd5b5f873b113d1516831692505b60405250949350505050565b6128926129e0565b610ce557604051631afcd79f60e31b815260040160405180910390fd5b6128b761288a565b611941816129f9565b6001600160a01b0383166128e157611cde6001600160a01b03831682611faf565b611cde6001600160a01b0384168383612272565b806001600160a01b03163b5f036129215780604051634c9c8ce360e01b815260040161080c9190612acf565b5f51602061322e5f395f51905f5280546001600160a01b0319166001600160a01b0392909216919091179055565b60605f61295c8484612a01565b905080801561297d57505f3d118061297d57505f846001600160a01b03163b115b156129925761298a612a14565b9150506107e2565b80156129b35783604051639996b31560e01b815260040161080c9190612acf565b3d156120095761245361281d565b3415610ce55760405163b398979f60e01b815260040160405180910390fd5b5f6129e961245a565b54600160401b900460ff16919050565b61190f61288a565b5f5f5f835160208501865af49392505050565b6040513d81523d5f602083013e3d602001810160405290565b828054828255905f5260205f20908101928215612a66579160200282015b82811115612a66578251825591602001919060010190612a4b565b50612a72929150612a76565b5090565b5b80821115612a72575f8155600101612a77565b5f60208284031215612a9a575f5ffd5b5035919050565b5f60208284031215612ab1575f5ffd5b81356001600160e01b031981168114612ac8575f5ffd5b9392505050565b6001600160a01b0391909116815260200190565b602080825282518282018190525f918401906040840190835b81811015612b1a578351835260209384019390920191600101612afc565b509095945050505050565b803560ff81168114612b35575f5ffd5b919050565b5f5f5f60608486031215612b4c575f5ffd5b83359250612b5c60208501612b25565b929592945050506040919091013590565b6001600160a01b0381168114611941575f5ffd5b5f5f5f60608486031215612b93575f5ffd5b612b9c84612b25565b9250602084013591506040840135612bb381612b6d565b809150509250925092565b634e487b7160e01b5f52604160045260245ffd5b5f5f60408385031215612be3575f5ffd5b8235612bee81612b6d565b915060208301356001600160401b03811115612c08575f5ffd5b8301601f81018513612c18575f5ffd5b80356001600160401b03811115612c3157612c31612bbe565b604051601f8201601f19908116603f011681016001600160401b0381118282101715612c5f57612c5f612bbe565b604052818152828201602001871015612c76575f5ffd5b816020840160208301375f602083830101528093505050509250929050565b5f5f60408385031215612ca6575f5ffd5b50508035926020909101359150565b5f5f83601f840112612cc5575f5ffd5b5081356001600160401b03811115612cdb575f5ffd5b602083019150836020828501011115612cf2575f5ffd5b9250929050565b5f5f5f5f60408587031215612d0c575f5ffd5b84356001600160401b03811115612d21575f5ffd5b612d2d87828801612cb5565b90955093505060208501356001600160401b03811115612d4b575f5ffd5b612d5787828801612cb5565b95989497509550505050565b5f5f60408385031215612d74575f5ffd5b8235612d7f81612b6d565b946020939093013593505050565b602081525f82518060208401528060208501604085015e5f604082850101526040601f19601f83011684010191505092915050565b5f5f60208385031215612dd3575f5ffd5b82356001600160401b03811115612de8575f5ffd5b612df485828601612cb5565b90969095509350505050565b5f60208284031215612e10575f5ffd5b8135612ac881612b6d565b5f5f60408385031215612e2c575f5ffd5b82359150612e3c60208401612b25565b90509250929050565b5f8151808452602084019350602083015f5b82811015612e75578151865260209586019590910190600101612e57565b5093949350505050565b60208152815160208201525f6020830151612e9f604084018260ff169052565b5060408301516101406060840152612ebb610160840182612e45565b905060608401516080840152608084015160a084015260a0840151612ee560c085018260ff169052565b5060c084015180151560e08501525060e08401516001600160a01b038116610100850152506101008401516001600160a01b038116610120850152506101208401516101408401528091505092915050565b60208082526015908201527413585c9ad95d08191bd95cc81b9bdd08195e1a5cdd605a1b604082015260600190565b6020808252600f908201526e496e76616c6964206f7574636f6d6560881b604082015260600190565b6020808252601d908201527f416d6f756e74206d7573742062652067726561746572207468616e2030000000604082015260600190565b634e487b7160e01b5f52603260045260245ffd5b634e487b7160e01b5f52601160045260245ffd5b808201808211156107e2576107e2612fda565b80820281158282048414176107e2576107e2612fda565b5f8261303257634e487b7160e01b5f52601260045260245ffd5b500490565b60208082526017908201527613585c9ad95d08185b1c9958591e481c995cdbdb1d9959604a1b604082015260600190565b5f60208284031215613078575f5ffd5b5051919050565b818382375f9101908152919050565b805160208201516001600160b01b031981169190600a8210156130c5576001600160b01b0319600a83900360031b81901b82161692505b5050919050565b5f600182016130dd576130dd612fda565b5060010190565b5f5f858511156130f2575f5ffd5b838611156130fe575f5ffd5b5050820193919092039150565b5f6020828403121561311b575f5ffd5b612ac882612b25565b5f5f5f5f5f5f60c08789031215613139575f5ffd5b61314287612b25565b9550602087013561315281612b6d565b94506040870135935061316760608801612b25565b92506080870135915060a087013561317e81612b6d565b809150509295509295509295565b5f5f5f6060848603121561319e575f5ffd5b6131a784612b25565b9250602084013591506131bc60408501612b25565b90509250925092565b5f5f5f5f5f5f60c087890312156131da575f5ffd5b6131e387612b25565b95506131f160208801612b25565b945060408701359350606087013561320881612b6d565b9250608087013561321881612b6d565b9598949750929591949360a09092013592505056fe360894a13ba1a3210667c828492db98dca3e2076cc3735a920a3ca505d382bbca2646970667358221220b05aac848699b69047389f230c0093035154b439d3419ee1ba267e8de1e6670464736f6c634300081c0033",
  "linkReferences": {},
  "deployedLinkReferences": {},
  "immutableReferences": {
    "957": [
      {
        "length": 32,
        "start": 7050
      },
      {
        "length": 32,
        "start": 7091
      },
      {
        "length": 32,
        "start": 8049
      }
    ]
  },
  "inputSourceName": "project/contracts/PredictionMarket.sol",
  "buildInfoId": "solc-0_8_28-66551f470d14343ac2981ecfbfb6e5f3507e6518"
}