{
  "_format": "hh3-artifact-1",
  "contractName": "PredictionMarket",
  "sourceName": "contracts/PredictionMarket.sol",
  "abi": [
    {
      "inputs": [
        {
          "internalType": "address",
          "name": "_forwarderAddress",
          "type": "address"
        }
      ],
      "stateMutability": "nonpayable",
      "type": "constructor"
    },
    {
      "inputs": [],
      "name": "FailedCall",
      "type": "error"
    },
    {
      "inputs": [
        {
          "internalType": "uint256",
          "name": "balance",
          "type": "uint256"
        },
        {
          "internalType": "uint256",
          "name": "needed",
          "type": "uint256"
        }
      ],
      "name": "InsufficientBalance",
      "type": "error"
    },
    {
      "inputs": [
        {
          "internalType": "address",
          "name": "received",
          "type": "address"
        },
        {
          "internalType": "address",
          "name": "expected",
          "type": "address"
        }
      ],
      "name": "InvalidAuthor",
      "type": "error"
    },
    {
      "inputs": [],
      "name": "InvalidForwarderAddress",
      "type": "error"
    },
    {
      "inputs": [
        {
          "internalType": "address",
          "name": "sender",
          "type": "address"
        },
        {
          "internalType": "address",
          "name": "expected",
          "type": "address"
        }
      ],
      "name": "InvalidSender",
      "type": "error"
    },
    {
      "inputs": [
        {
          "internalType": "bytes32",
          "name": "received",
          "type": "bytes32"
        },
        {
          "internalType": "bytes32",
          "name": "expected",
          "type": "bytes32"
        }
      ],
      "name": "InvalidWorkflowId",
      "type": "error"
    },
    {
      "inputs": [
        {
          "internalType": "bytes10",
          "name": "received",
          "type": "bytes10"
        },
        {
          "internalType": "bytes10",
          "name": "expected",
          "type": "bytes10"
        }
      ],
      "name": "InvalidWorkflowName",
      "type": "error"
    },
    {
      "inputs": [
        {
          "internalType": "address",
          "name": "owner",
          "type": "address"
        }
      ],
      "name": "OwnableInvalidOwner",
      "type": "error"
    },
    {
      "inputs": [
        {
          "internalType": "address",
          "name": "account",
          "type": "address"
        }
      ],
      "name": "OwnableUnauthorizedAccount",
      "type": "error"
    },
    {
      "inputs": [
        {
          "internalType": "address",
          "name": "token",
          "type": "address"
        }
      ],
      "name": "SafeERC20FailedOperation",
      "type": "error"
    },
    {
      "inputs": [],
      "name": "WorkflowNameRequiresAuthorValidation",
      "type": "error"
    },
    {
      "anonymous": false,
      "inputs": [
        {
          "indexed": true,
          "internalType": "address",
          "name": "owner",
          "type": "address"
        },
        {
          "indexed": false,
          "internalType": "uint256",
          "name": "amount",
          "type": "uint256"
        }
      ],
      "name": "EmergencyWithdrawETH",
      "type": "event"
    },
    {
      "anonymous": false,
      "inputs": [
        {
          "indexed": true,
          "internalType": "address",
          "name": "owner",
          "type": "address"
        },
        {
          "indexed": true,
          "internalType": "address",
          "name": "token",
          "type": "address"
        },
        {
          "indexed": false,
          "internalType": "uint256",
          "name": "amount",
          "type": "uint256"
        }
      ],
      "name": "EmergencyWithdrawToken",
      "type": "event"
    },
    {
      "anonymous": false,
      "inputs": [
        {
          "indexed": true,
          "internalType": "address",
          "name": "previousAuthor",
          "type": "address"
        },
        {
          "indexed": true,
          "internalType": "address",
          "name": "newAuthor",
          "type": "address"
        }
      ],
      "name": "ExpectedAuthorUpdated",
      "type": "event"
    },
    {
      "anonymous": false,
      "inputs": [
        {
          "indexed": true,
          "internalType": "bytes32",
          "name": "previousId",
          "type": "bytes32"
        },
        {
          "indexed": true,
          "internalType": "bytes32",
          "name": "newId",
          "type": "bytes32"
        }
      ],
      "name": "ExpectedWorkflowIdUpdated",
      "type": "event"
    },
    {
      "anonymous": false,
      "inputs": [
        {
          "indexed": true,
          "internalType": "bytes10",
          "name": "previousName",
          "type": "bytes10"
        },
        {
          "indexed": true,
          "internalType": "bytes10",
          "name": "newName",
          "type": "bytes10"
        }
      ],
      "name": "ExpectedWorkflowNameUpdated",
      "type": "event"
    },
    {
      "anonymous": false,
      "inputs": [
        {
          "indexed": true,
          "internalType": "address",
          "name": "previousForwarder",
          "type": "address"
        },
        {
          "indexed": true,
          "internalType": "address",
          "name": "newForwarder",
          "type": "address"
        }
      ],
      "name": "ForwarderAddressUpdated",
      "type": "event"
    },
    {
      "anonymous": false,
      "inputs": [
        {
          "indexed": true,
          "internalType": "uint256",
          "name": "marketId",
          "type": "uint256"
        },
        {
          "indexed": true,
          "internalType": "address",
          "name": "creator",
          "type": "address"
        },
        {
          "indexed": false,
          "internalType": "uint8",
          "name": "outcomeCount",
          "type": "uint8"
        },
        {
          "indexed": false,
          "internalType": "uint256",
          "name": "finishesAt",
          "type": "uint256"
        },
        {
          "indexed": false,
          "internalType": "address",
          "name": "paymentToken",
          "type": "address"
        },
        {
          "indexed": false,
          "internalType": "bytes32",
          "name": "contentHash",
          "type": "bytes32"
        }
      ],
      "name": "MarketCreated",
      "type": "event"
    },
    {
      "anonymous": false,
      "inputs": [
        {
          "indexed": true,
          "internalType": "uint256",
          "name": "marketId",
          "type": "uint256"
        },
        {
          "indexed": false,
          "internalType": "uint8",
          "name": "winningOutcome",
          "type": "uint8"
        },
        {
          "indexed": false,
          "internalType": "uint256",
          "name": "totalPool",
          "type": "uint256"
        },
        {
          "indexed": false,
          "internalType": "uint256",
          "name": "timestamp",
          "type": "uint256"
        }
      ],
      "name": "MarketResolved",
      "type": "event"
    },
    {
      "anonymous": false,
      "inputs": [
        {
          "indexed": true,
          "internalType": "address",
          "name": "previousOwner",
          "type": "address"
        },
        {
          "indexed": true,
          "internalType": "address",
          "name": "newOwner",
          "type": "address"
        }
      ],
      "name": "OwnershipTransferred",
      "type": "event"
    },
    {
      "anonymous": false,
      "inputs": [
        {
          "indexed": true,
          "internalType": "uint256",
          "name": "predictionId",
          "type": "uint256"
        },
        {
          "indexed": true,
          "internalType": "uint256",
          "name": "marketId",
          "type": "uint256"
        },
        {
          "indexed": true,
          "internalType": "address",
          "name": "predictor",
          "type": "address"
        },
        {
          "indexed": false,
          "internalType": "uint8",
          "name": "outcome",
          "type": "uint8"
        },
        {
          "indexed": false,
          "internalType": "uint256",
          "name": "amount",
          "type": "uint256"
        },
        {
          "indexed": false,
          "internalType": "uint256",
          "name": "timestamp",
          "type": "uint256"
        }
      ],
      "name": "PredictionPlaced",
      "type": "event"
    },
    {
      "anonymous": false,
      "inputs": [
        {
          "indexed": false,
          "internalType": "string",
          "name": "message",
          "type": "string"
        }
      ],
      "name": "SecurityWarning",
      "type": "event"
    },
    {
      "anonymous": false,
      "inputs": [
        {
          "indexed": true,
          "internalType": "uint256",
          "name": "predictionId",
          "type": "uint256"
        },
        {
          "indexed": true,
          "internalType": "address",
          "name": "predictor",
          "type": "address"
        },
        {
          "indexed": false,
          "internalType": "uint256",
          "name": "amount",
          "type": "uint256"
        }
      ],
      "name": "WinningsPaid",
      "type": "event"
    },
    {
      "inputs": [
        {
          "internalType": "uint256",
          "name": "_marketId",
          "type": "uint256"
        },
        {
          "internalType": "uint8",
          "name": "_outcome",
          "type": "uint8"
        },
        {
          "internalType": "uint256",
          "name": "_amount",
          "type": "uint256"
        }
      ],
      "name": "calculatePotentialWinnings",
      "outputs": [
        {
          "internalType": "uint256",
          "name": "",
          "type": "uint256"
        }
      ],
      "stateMutability": "view",
      "type": "function"
    },
    {
      "inputs": [
        {
          "internalType": "uint256",
          "name": "_predictionId",
          "type": "uint256"
        }
      ],
      "name": "calculateWinnings",
      "outputs": [
        {
          "internalType": "uint256",
          "name": "",
          "type": "uint256"
        }
      ],
      "stateMutability": "view",
      "type": "function"
    },
    {
      "inputs": [
        {
          "internalType": "uint8",
          "name": "_outcomeCount",
          "type": "uint8"
        },
        {
          "internalType": "uint256",
          "name": "_finishesAt",
          "type": "uint256"
        },
        {
          "internalType": "address",
          "name": "_paymentToken",
          "type": "address"
        }
      ],
      "name": "createMarket",
      "outputs": [
        {
          "internalType": "uint256",
          "name": "",
          "type": "uint256"
        }
      ],
      "stateMutability": "nonpayable",
      "type": "function"
    },
    {
      "inputs": [
        {
          "internalType": "uint256",
          "name": "_amount",
          "type": "uint256"
        }
      ],
      "name": "emergencyWithdrawETH",
      "outputs": [],
      "stateMutability": "nonpayable",
      "type": "function"
    },
    {
      "inputs": [
        {
          "internalType": "address",
          "name": "_token",
          "type": "address"
        },
        {
          "internalType": "uint256",
          "name": "_amount",
          "type": "uint256"
        }
      ],
      "name": "emergencyWithdrawToken",
      "outputs": [],
      "stateMutability": "nonpayable",
      "type": "function"
    },
    {
      "inputs": [],
      "name": "getExpectedAuthor",
      "outputs": [
        {
          "internalType": "address",
          "name": "",
          "type": "address"
        }
      ],
      "stateMutability": "view",
      "type": "function"
    },
    {
      "inputs": [],
      "name": "getExpectedWorkflowId",
      "outputs": [
        {
          "internalType": "bytes32",
          "name": "",
          "type": "bytes32"
        }
      ],
      "stateMutability": "view",
      "type": "function"
    },
    {
      "inputs": [],
      "name": "getExpectedWorkflowName",
      "outputs": [
        {
          "internalType": "bytes10",
          "name": "",
          "type": "bytes10"
        }
      ],
      "stateMutability": "view",
      "type": "function"
    },
    {
      "inputs": [],
      "name": "getForwarderAddress",
      "outputs": [
        {
          "internalType": "address",
          "name": "",
          "type": "address"
        }
      ],
      "stateMutability": "view",
      "type": "function"
    },
    {
      "inputs": [
        {
          "internalType": "uint256",
          "name": "_marketId",
          "type": "uint256"
        }
      ],
      "name": "getMarket",
      "outputs": [
        {
          "components": [
            {
              "internalType": "uint256",
              "name": "id",
              "type": "uint256"
            },
            {
              "internalType": "uint8",
              "name": "outcomeCount",
              "type": "uint8"
            },
            {
              "internalType": "uint256[]",
              "name": "outcomePools",
              "type": "uint256[]"
            },
            {
              "internalType": "uint256",
              "name": "totalPool",
              "type": "uint256"
            },
            {
              "internalType": "uint256",
              "name": "finishesAt",
              "type": "uint256"
            },
            {
              "internalType": "uint8",
              "name": "winningOutcome",
              "type": "uint8"
            },
            {
              "internalType": "bool",
              "name": "isResolved",
              "type": "bool"
            },
            {
              "internalType": "address",
              "name": "creator",
              "type": "address"
            },
            {
              "internalType": "address",
              "name": "paymentToken",
              "type": "address"
            },
            {
              "internalType": "bytes32",
              "name": "contentHash",
              "type": "bytes32"
            }
          ],
          "internalType": "struct PredictionMarket.Market",
          "name": "",
          "type": "tuple"
        }
      ],
      "stateMutability": "view",
      "type": "function"
    },
    {
      "inputs": [
        {
          "internalType": "uint256",
          "name": "_marketId",
          "type": "uint256"
        }
      ],
      "name": "getMarketPredictions",
      "outputs": [
        {
          "internalType": "uint256[]",
          "name": "",
          "type": "uint256[]"
        }
      ],
      "stateMutability": "view",
      "type": "function"
    },
    {
      "inputs": [
        {
          "internalType": "uint256",
          "name": "_predictionId",
          "type": "uint256"
        }
      ],
      "name": "getPrediction",
      "outputs": [
        {
          "components": [
            {
              "internalType": "uint256",
              "name": "marketId",
              "type": "uint256"
            },
            {
              "internalType": "address",
              "name": "predictor",
              "type": "address"
            },
            {
              "internalType": "uint8",
              "name": "outcome",
              "type": "uint8"
            },
            {
              "internalType": "uint256",
              "name": "amount",
              "type": "uint256"
            }
          ],
          "internalType": "struct PredictionMarket.Prediction",
          "name": "",
          "type": "tuple"
        }
      ],
      "stateMutability": "view",
      "type": "function"
    },
    {
      "inputs": [
        {
          "internalType": "address",
          "name": "_user",
          "type": "address"
        }
      ],
      "name": "getUserPredictions",
      "outputs": [
        {
          "internalType": "uint256[]",
          "name": "",
          "type": "uint256[]"
        }
      ],
      "stateMutability": "view",
      "type": "function"
    },
    {
      "inputs": [],
      "name": "marketCount",
      "outputs": [
        {
          "internalType": "uint256",
          "name": "",
          "type": "uint256"
        }
      ],
      "stateMutability": "view",
      "type": "function"
    },
    {
      "inputs": [
        {
          "internalType": "uint256",
          "name": "",
          "type": "uint256"
        },
        {
          "internalType": "uint256",
          "name": "",
          "type": "uint256"
        }
      ],
      "name": "marketPredictions",
      "outputs": [
        {
          "internalType": "uint256",
          "name": "",
          "type": "uint256"
        }
      ],
      "stateMutability": "view",
      "type": "function"
    },
    {
      "inputs": [
        {
          "internalType": "uint256",
          "name": "",
          "type": "uint256"
        }
      ],
      "name": "markets",
      "outputs": [
        {
          "internalType": "uint256",
          "name": "id",
          "type": "uint256"
        },
        {
          "internalType": "uint8",
          "name": "outcomeCount",
          "type": "uint8"
        },
        {
          "internalType": "uint256",
          "name": "totalPool",
          "type": "uint256"
        },
        {
          "internalType": "uint256",
          "name": "finishesAt",
          "type": "uint256"
        },
        {
          "internalType": "uint8",
          "name": "winningOutcome",
          "type": "uint8"
        },
        {
          "internalType": "bool",
          "name": "isResolved",
          "type": "bool"
        },
        {
          "internalType": "address",
          "name": "creator",
          "type": "address"
        },
        {
          "internalType": "address",
          "name": "paymentToken",
          "type": "address"
        },
        {
          "internalType": "bytes32",
          "name": "contentHash",
          "type": "bytes32"
        }
      ],
      "stateMutability": "view",
      "type": "function"
    },
    {
      "inputs": [
        {
          "internalType": "bytes",
          "name": "metadata",
          "type": "bytes"
        },
        {
          "internalType": "bytes",
          "name": "report",
          "type": "bytes"
        }
      ],
      "name": "onReport",
      "outputs": [],
      "stateMutability": "nonpayable",
      "type": "function"
    },
    {
      "inputs": [],
      "name": "owner",
      "outputs": [
        {
          "internalType": "address",
          "name": "",
          "type": "address"
        }
      ],
      "stateMutability": "view",
      "type": "function"
    },
    {
      "inputs": [
        {
          "internalType": "uint256",
          "name": "_marketId",
          "type": "uint256"
        },
        {
          "internalType": "uint8",
          "name": "_outcome",
          "type": "uint8"
        },
        {
          "internalType": "uint256",
          "name": "_amount",
          "type": "uint256"
        }
      ],
      "name": "predict",
      "outputs": [],
      "stateMutability": "payable",
      "type": "function"
    },
    {
      "inputs": [],
      "name": "predictionCount",
      "outputs": [
        {
          "internalType": "uint256",
          "name": "",
          "type": "uint256"
        }
      ],
      "stateMutability": "view",
      "type": "function"
    },
    {
      "inputs": [
        {
          "internalType": "uint256",
          "name": "",
          "type": "uint256"
        }
      ],
      "name": "predictions",
      "outputs": [
        {
          "internalType": "uint256",
          "name": "marketId",
          "type": "uint256"
        },
        {
          "internalType": "address",
          "name": "predictor",
          "type": "address"
        },
        {
          "internalType": "uint8",
          "name": "outcome",
          "type": "uint8"
        },
        {
          "internalType": "uint256",
          "name": "amount",
          "type": "uint256"
        }
      ],
      "stateMutability": "view",
      "type": "function"
    },
    {
      "inputs": [],
      "name": "renounceOwnership",
      "outputs": [],
      "stateMutability": "nonpayable",
      "type": "function"
    },
    {
      "inputs": [
        {
          "internalType": "uint256",
          "name": "_marketId",
          "type": "uint256"
        },
        {
          "internalType": "uint8",
          "name": "_winningOutcome",
          "type": "uint8"
        }
      ],
      "name": "resolveMarket",
      "outputs": [],
      "stateMutability": "nonpayable",
      "type": "function"
    },
    {
      "inputs": [
        {
          "internalType": "address",
          "name": "_author",
          "type": "address"
        }
      ],
      "name": "setExpectedAuthor",
      "outputs": [],
      "stateMutability": "nonpayable",
      "type": "function"
    },
    {
      "inputs": [
        {
          "internalType": "bytes32",
          "name": "_id",
          "type": "bytes32"
        }
      ],
      "name": "setExpectedWorkflowId",
      "outputs": [],
      "stateMutability": "nonpayable",
      "type": "function"
    },
    {
      "inputs": [
        {
          "internalType": "string",
          "name": "_name",
          "type": "string"
        }
      ],
      "name": "setExpectedWorkflowName",
      "outputs": [],
      "stateMutability": "nonpayable",
      "type": "function"
    },
    {
      "inputs": [
        {
          "internalType": "address",
          "name": "_forwarder",
          "type": "address"
        }
      ],
      "name": "setForwarderAddress",
      "outputs": [],
      "stateMutability": "nonpayable",
      "type": "function"
    },
    {
      "inputs": [
        {
          "internalType": "bytes4",
          "name": "interfaceId",
          "type": "bytes4"
        }
      ],
      "name": "supportsInterface",
      "outputs": [
        {
          "internalType": "bool",
          "name": "",
          "type": "bool"
        }
      ],
      "stateMutability": "view",
      "type": "function"
    },
    {
      "inputs": [
        {
          "internalType": "address",
          "name": "newOwner",
          "type": "address"
        }
      ],
      "name": "transferOwnership",
      "outputs": [],
      "stateMutability": "nonpayable",
      "type": "function"
    },
    {
      "inputs": [
        {
          "internalType": "address",
          "name": "",
          "type": "address"
        },
        {
          "internalType": "uint256",
          "name": "",
          "type": "uint256"
        }
      ],
      "name": "userPredictions",
      "outputs": [
        {
          "internalType": "uint256",
          "name": "",
          "type": "uint256"
        }
      ],
      "stateMutability": "view",
      "type": "function"
    }
  ],
  "bytecode": "0x608060405234801561000f575f5ffd5b50604051612cd8380380612cd883398101604081905261002e91610122565b80338061005457604051631e4fbdf760e01b81525f600482015260240160405180910390fd5b61005d816100d3565b506001600160a01b0381166100845760405162e0775560e61b815260040160405180910390fd5b600180546001600160a01b0319166001600160a01b0383169081179091556040515f907f039ad854736757070884dd787ef1a7f58db33546639d1f3efddcf4a33fb8997e908290a3505061014f565b5f80546001600160a01b038381166001600160a01b0319831681178455604051919092169283917f8be0079c531659141344cd1fd0a4f28419497f9722a3daafe3b4186f6b6457e09190a35050565b5f60208284031215610132575f5ffd5b81516001600160a01b0381168114610148575f5ffd5b9392505050565b612b7c8061015c5f395ff3fe608060405260043610610188575f3560e01c8063a4c3b091116100d4578063d777cc6d11610083578063d777cc6d14610569578063df55406e14610588578063eb44fdd3146105a7578063ec979082146105d3578063f2fde38b146105e8578063f5c793ef14610607578063f6c331791461061b578063fe83bece1461063a575f5ffd5b8063a4c3b091146103c9578063a619d818146103e8578063b1283e771461041a578063bc1fc27a146104ed578063c285f8531461050c578063c3c44ac21461052b578063d60c884b1461054a575f5ffd5b806350ae97161161013b57806350ae9716146102fb5780636b792c4b146103105780636dffbcb71461032f578063715018a61461034e578063805f2132146103625780638da5cb5b146103815780638e0596a214610395578063a2e279eb146103aa575f5ffd5b80624fbbb01461018c57806301ffc9a7146102115780633397cf67146102405780633441856f146102665780633c86e61b1461028357806341fdb485146102af5780634a7724d0146102dc575b5f5ffd5b348015610197575f5ffd5b506101dc6101a6366004612466565b60076020525f908152604090208054600182015460029092015490916001600160a01b03811691600160a01b90910460ff169084565b604080519485526001600160a01b03909316602085015260ff9091169183019190915260608201526080015b60405180910390f35b34801561021c575f5ffd5b5061023061022b36600461247d565b61070a565b6040519015158152602001610208565b34801561024b575f5ffd5b506002546001600160a01b03165b60405161020891906124ab565b348015610271575f5ffd5b506001546001600160a01b0316610259565b34801561028e575f5ffd5b506102a261029d366004612466565b610740565b60405161020891906124bf565b3480156102ba575f5ffd5b506102ce6102c9366004612516565b6107cb565b604051908152602001610208565b3480156102e7575f5ffd5b506102ce6102f636600461255d565b6108bb565b61030e610309366004612516565b6108d9565b005b34801561031b575f5ffd5b5061030e61032a366004612466565b610ae8565b34801561033a575f5ffd5b506102ce61034936600461259a565b610bc7565b348015610359575f5ffd5b5061030e610bf2565b34801561036d575f5ffd5b5061030e61037c3660046125ff565b610c05565b34801561038c575f5ffd5b50610259610e36565b3480156103a0575f5ffd5b506102ce60055481565b3480156103b5575f5ffd5b506102ce6103c4366004612466565b610e44565b3480156103d4575f5ffd5b5061030e6103e336600461266b565b610eff565b3480156103f3575f5ffd5b50600254600160a01b900460b01b6040516001600160b01b03199091168152602001610208565b348015610425575f5ffd5b50610496610434366004612466565b600660208190525f91825260409091208054600182015460038301546004840154600585015495850154600790950154939560ff938416959294919380821693610100830490911692620100009092046001600160a01b039081169291169089565b60408051998a5260ff98891660208b01528901969096526060880194909452949091166080860152151560a08501526001600160a01b0392831660c08501529190911660e083015261010082015261012001610208565b3480156104f8575f5ffd5b5061030e610507366004612695565b6110a6565b348015610517575f5ffd5b506102a26105263660046126d4565b611280565b348015610536575f5ffd5b5061030e610545366004612466565b6112e9565b348015610555575f5ffd5b5061030e6105643660046126d4565b611329565b348015610574575f5ffd5b5061030e6105833660046126d4565b611382565b348015610593575f5ffd5b5061030e6105a23660046126ef565b611478565b3480156105b2575f5ffd5b506105c66105c1366004612466565b61157c565b6040516102089190612753565b3480156105de575f5ffd5b506102ce60045481565b3480156105f3575f5ffd5b5061030e6106023660046126d4565b6116ea565b348015610612575f5ffd5b506003546102ce565b348015610626575f5ffd5b506102ce61063536600461266b565b611727565b348015610645575f5ffd5b506106cb610654366004612466565b604080516080810182525f808252602082018190529181018290526060810191909152505f9081526007602090815260409182902082516080810184528154815260018201546001600160a01b03811693820193909352600160a01b90920460ff1692820192909252600290910154606082015290565b6040516102089190815181526020808301516001600160a01b03169082015260408083015160ff16908201526060918201519181019190915260800190565b5f6001600160e01b0319821663402f909960e11b148061073a57506001600160e01b031982166301ffc9a760e01b145b92915050565b606081600454811061076d5760405162461bcd60e51b81526004016107649061280b565b60405180910390fd5b5f83815260096020908152604091829020805483518184028101840190945280845290918301828280156107be57602002820191905f5260205f20905b8154815260200190600101908083116107aa575b5050505050915050919050565b5f8360045481106107ee5760405162461bcd60e51b81526004016107649061280b565b5f858152600660205260409020600181015460ff908116908616106108255760405162461bcd60e51b81526004016107649061283a565b5f84116108445760405162461bcd60e51b815260040161076490612863565b5f84826002018760ff168154811061085e5761085e61289a565b905f5260205f20015461087191906128c2565b90505f85836003015461088491906128c2565b9050815f03610898575f94505050506108b3565b816108a382886128d5565b6108ad91906128ec565b94505050505b509392505050565b5f6108c4611740565b6108d1848484335f611772565b949350505050565b8260045481106108fb5760405162461bcd60e51b81526004016107649061280b565b5f848152600660205260409020600501548490610100900460ff16156109335760405162461bcd60e51b81526004016107649061290b565b5f85815260066020526040902060048101544211156109865760405162461bcd60e51b815260206004820152600f60248201526e13585c9ad95d08199a5b9a5cda1959608a1b6044820152606401610764565b600181015460ff908116908616106109b05760405162461bcd60e51b81526004016107649061283a565b60068101545f906001600160a01b0316610a15575f3411610a0e5760405162461bcd60e51b8152602060048201526018602482015277135d5cdd081cd95b9908115512081d1bc81c1c99591a58dd60421b6044820152606401610764565b5034610ad3565b3415610a6d5760405162461bcd60e51b815260206004820152602160248201527f446f206e6f742073656e642045544820666f7220746f6b656e206d61726b65746044820152607360f81b6064820152608401610764565b5f8511610ab65760405162461bcd60e51b8152602060048201526017602482015276135d5cdd081cdc1958da599e4818995d08185b5bdd5b9d604a1b6044820152606401610764565b5060068101548490610ad3906001600160a01b0316333084611963565b610adf338888846119ca565b50505050505050565b610af0611740565b5f8111610b0f5760405162461bcd60e51b815260040161076490612863565b80471015610b5f5760405162461bcd60e51b815260206004820152601d60248201527f496e73756666696369656e7420636f6e74726163742062616c616e63650000006044820152606401610764565b610b7a81610b6b610e36565b6001600160a01b031690611c20565b610b82610e36565b6001600160a01b03167f20f907b58305c7b76035bc03b26f32b1c4f6560f96be6f3bb54c5c848a2d4ddd82604051610bbc91815260200190565b60405180910390a250565b6009602052815f5260405f208181548110610be0575f80fd5b905f5260205f20015f91509150505481565b610bfa611740565b610c035f611cac565b565b6001546001600160a01b031615801590610c2a57506001546001600160a01b03163314155b15610c5d5760015460405163708986dd60e11b81523360048201526001600160a01b039091166024820152604401610764565b600354151580610c7757506002546001600160a01b031615155b80610c975750600254600160a01b900460b01b6001600160b01b03191615155b15610e26575f5f5f610cdd87878080601f0160208091040260200160405190810160405280939291908181526020018383808284375f92019190915250611cfb92505050565b600354929550909350915015801590610cf857506003548314155b15610d2457600354604051634dfd1cdd60e11b8152610764918591600401918252602082015260400190565b6002546001600160a01b031615801590610d4c57506002546001600160a01b03828116911614155b15610d8157600254604051631715315f60e31b81526001600160a01b0380841660048301529091166024820152604401610764565b600254600160a01b900460b01b6001600160b01b03191615610e22576002546001600160a01b0316610dc657604051634847901160e01b815260040160405180910390fd5b6002546001600160b01b0319838116600160a01b90920460b01b1614610e225760025460405163362304d360e11b81526001600160b01b03198481166004830152600160a01b90920460b01b9091166024820152604401610764565b5050505b610e308282611d14565b50505050565b5f546001600160a01b031690565b5f81815260076020908152604080832080548452600690925282206005810154610100900460ff161580610e8e575060058101546001830154600160a01b900460ff908116911614155b15610e9c57505f9392505050565b60058101546002820180545f9260ff16908110610ebb57610ebb61289a565b905f5260205f2001549050805f03610ed757505f949350505050565b8082600301548460020154610eec91906128d5565b610ef691906128ec565b95945050505050565b610f07611740565b6001600160a01b038216610f555760405162461bcd60e51b8152602060048201526015602482015274496e76616c696420746f6b656e206164647265737360581b6044820152606401610764565b5f8111610f745760405162461bcd60e51b815260040161076490612863565b6040516370a0823160e01b8152829082906001600160a01b038316906370a0823190610fa49030906004016124ab565b602060405180830381865afa158015610fbf573d5f5f3e3d5ffd5b505050506040513d601f19601f82011682018060405250810190610fe3919061293c565b10156110315760405162461bcd60e51b815260206004820152601a60248201527f496e73756666696369656e7420746f6b656e2062616c616e63650000000000006044820152606401610764565b61104d61103c610e36565b6001600160a01b0383169084611f10565b826001600160a01b031661105f610e36565b6001600160a01b03167fda0612d7ca9ff90ca7143a6021ba8938994f8d045b2834ae585fd07b27ea697c8460405161109991815260200190565b60405180910390a3505050565b6110ae611740565b600254600160a01b900460b01b5f8290036111115760028054600160a01b600160f01b03191690556040515f906001600160b01b03198316907f1e7ddd09d504c82dcfc784a464b167469f5aad967606ec4822d848ef9141dfa5908390a3505050565b5f60028484604051611124929190612953565b602060405180830381855afa15801561113f573d5f5f3e3d5ffd5b5050506040513d601f19601f82011682018060405250810190611162919061293c565b90505f61118f8260405160200161117b91815260200190565b604051602081830303815290604052611f41565b60408051600a8082528183019092529192505f91906020820181803683370190505090505f5b600a81101561120b578281815181106111d0576111d061289a565b602001015160f81c60f81b8282815181106111ed576111ed61289a565b60200101906001600160f81b03191690815f1a9053506001016111b5565b5061121581612976565b60028054600160a01b600160f01b031916600160a01b60b093841c81029190911791829055604051910490911b6001600160b01b031990811691908616907f1e7ddd09d504c82dcfc784a464b167469f5aad967606ec4822d848ef9141dfa5905f90a3505050505050565b6001600160a01b0381165f908152600860209081526040918290208054835181840281018401909452808452606093928301828280156112dd57602002820191905f5260205f20905b8154815260200190600101908083116112c9575b50505050509050919050565b6112f1611740565b6003805490829055604051829082907f0dbedcdf21925e053b4c574eae180d7f2883235ab4976ecc0873598a2a999b03905f90a35050565b611331611740565b600280546001600160a01b038381166001600160a01b0319831681179093556040519116919082907f3321cda85c145617e47418aa14255e9dcbec53a753778e57591703b89a3cad31905f90a35050565b61138a611740565b6001546001600160a01b03908116908216611428577f704da7db165c79c1e33d542c079333bbde970a733032d2f95fec8fb7d770cbf760405161141f9060208082526038908201527f466f7277617264657220616464726573732073657420746f207a65726f202d20604082015277636f6e7472616374206973206e6f7720494e53454355524560401b606082015260800190565b60405180910390a15b600180546001600160a01b0319166001600160a01b0384811691821790925560405190918316907f039ad854736757070884dd787ef1a7f58db33546639d1f3efddcf4a33fb8997e905f90a35050565b611480611740565b8160045481106114a25760405162461bcd60e51b81526004016107649061280b565b5f838152600660205260409020600501548390610100900460ff16156114da5760405162461bcd60e51b81526004016107649061290b565b5f848152600660205260409020600501546201000090046001600160a01b031633146115435760405162461bcd60e51b81526020600482015260186024820152774f6e6c792063726561746f722063616e207265736f6c766560401b6044820152606401610764565b5f8481526006602052604090206004015442116115725760405162461bcd60e51b8152600401610764906129b4565b610e3084846120fe565b6115e36040518061014001604052805f81526020015f60ff168152602001606081526020015f81526020015f81526020015f60ff1681526020015f151581526020015f6001600160a01b031681526020015f6001600160a01b031681526020015f81525090565b8160045481106116055760405162461bcd60e51b81526004016107649061280b565b5f8381526006602090815260409182902082516101408101845281548152600182015460ff168184015260028201805485518186028101860187528181529395929486949386019392919083018282801561167d57602002820191905f5260205f20905b815481526020019060010190808311611669575b50505091835250506003820154602082015260048201546040820152600582015460ff8082166060840152610100820416151560808301526201000090046001600160a01b0390811660a083015260068301541660c082015260079091015460e090910152949350505050565b6116f2611740565b6001600160a01b03811661171b575f604051631e4fbdf760e01b815260040161076491906124ab565b61172481611cac565b50565b6008602052815f5260405f208181548110610be0575f80fd5b33611749610e36565b6001600160a01b031614610c03573360405163118cdaa760e01b815260040161076491906124ab565b5f60028660ff1610156117c75760405162461bcd60e51b815260206004820152601d60248201527f4d7573742068617665206174206c656173742032206f7574636f6d65730000006044820152606401610764565b4285116118205760405162461bcd60e51b815260206004820152602160248201527f46696e6973682074696d65206d75737420626520696e207468652066757475726044820152606560f81b6064820152608401610764565b600480545f9182611830836129e5565b909155505f81815260066020526040902081815560018101805460ff191660ff8b169081179091559192509067ffffffffffffffff81111561187457611874612962565b60405190808252806020026020018201604052801561189d578160200160208202803683370190505b5080516118b4916002840191602090910190612409565b505f6003820155600481018790556005810180546001600160b01b031916620100006001600160a01b03888116918202929092179092556006830180546001600160a01b0319169189169182179055600783018690556040805160ff8c168152602081018b9052908101919091526060810186905283907f606a57169a52affdbe4fb1640df462fc1775a7d36d72286710507490ee1392569060800160405180910390a3509695505050505050565b6040516001600160a01b038481166024830152838116604483015260648201839052610e309186918216906323b872dd906084015b604051602081830303815290604052915060e01b6020820180516001600160e01b038381831617835250505050612349565b5f8381526006602052604090206001600160a01b038516611a295760405162461bcd60e51b8152602060048201526019602482015278496e76616c696420707265646963746f72206164647265737360381b6044820152606401610764565b600181015460ff90811690841610611a535760405162461bcd60e51b81526004016107649061283a565b5f8211611a725760405162461bcd60e51b815260040161076490612863565b80600401544210611abb5760405162461bcd60e51b815260206004820152601360248201527213585c9ad95d081a185cc8199a5b9a5cda1959606a1b6044820152606401610764565b600554604080516080810182528681526001600160a01b03808916602080840182815260ff808b16868801818152606088018c81525f8b8152600787528a812099518a5594516001808b0180549451909616600160a01b026001600160a81b031990941691909916179190911790925590516002968701559281526008825285812080548086018255908252828220018790558a81526009825294852080549384018155855290932001839055830180548592908110611b7d57611b7d61289a565b905f5260205f20015f828254611b9391906128c2565b9250508190555082826003015f828254611bad91906128c2565b909155505060058054905f611bc1836129e5565b90915550506040805160ff8616815260208101859052428183015290516001600160a01b03881691879184917ff71596fe917277a92c152c720b67dda8f6ce2c015dcb9d41677b1f6b54d4ea3a919081900360600190a4505050505050565b80471015611c4a5760405163cf47918160e01b815247600482015260248101829052604401610764565b5f5f836001600160a01b0316836040515f6040518083038185875af1925050503d805f8114611c94576040519150601f19603f3d011682016040523d82523d5f602084013e611c99565b606091505b509150915081610e3057610e30816123ac565b5f80546001600160a01b038381166001600160a01b0319831681178455604051919092169283917f8be0079c531659141344cd1fd0a4f28419497f9722a3daafe3b4186f6b6457e09190a35050565b60208101516040820151604a83015160601c9193909250565b5f611d2260208284866129fd565b810190611d2f9190612a24565b90508060ff165f03611dd6575f80808080611d4c87890189612a3d565b5f8481526006602081905260409091200154949a50929850909650945092506001600160a01b038084169116149050611dc05760405162461bcd60e51b81526020600482015260166024820152750a0c2f2dacadce840e8ded6cadc40dad2e6dac2e8c6d60531b6044820152606401610764565b611dcc858585856119ca565b5050505050505050565b8060ff16600103611e8b575f80611def84860186612aa5565b92509250506004548210611e155760405162461bcd60e51b81526004016107649061280b565b5f82815260066020526040902060050154610100900460ff1615611e4b5760405162461bcd60e51b81526004016107649061290b565b5f828152600660205260409020600401544211611e7a5760405162461bcd60e51b8152600401610764906129b4565b611e8482826120fe565b5050505050565b8060ff16600203611eca575f80808080611ea787890189612ade565b9550955095509550955050611ebf8585858585611772565b505050505050505050565b60405162461bcd60e51b8152602060048201526016602482015275496e76616c6964206f7065726174696f6e207479706560501b6044820152606401610764565b505050565b6040516001600160a01b03838116602483015260448201839052611f0b91859182169063a9059cbb90606401611998565b60605f82516002611f5291906128d5565b67ffffffffffffffff811115611f6a57611f6a612962565b6040519080825280601f01601f191660200182016040528015611f94576020820181803683370190505b5090505f5b83518110156120f7576040518060400160405280601081526020016f181899199a1a9b1b9c1cb0b131b232b360811b8152506004858381518110611fdf57611fdf61289a565b016020015182516001600160f81b031990911690911c60f81c9081106120075761200761289a565b01602001516001600160f81b031916826120228360026128d5565b815181106120325761203261289a565b60200101906001600160f81b03191690815f1a9053506040518060400160405280601081526020016f181899199a1a9b1b9c1cb0b131b232b360811b8152508482815181106120835761208361289a565b602091010151815160f89190911c600f169081106120a3576120a361289a565b01602001516001600160f81b031916826120be8360026128d5565b6120c99060016128c2565b815181106120d9576120d961289a565b60200101906001600160f81b03191690815f1a905350600101611f99565b5092915050565b5f8281526006602052604090206001015460ff908116908216106121345760405162461bcd60e51b81526004016107649061283a565b5f8281526006602090815260409182902060058101805460ff861661ffff199091168117610100179091556003820154845191825292810192909252429282019290925283907f503d167e0856e2f40aaac2dac6550f9543efb837691cc189cde53b0172e4f32b9060600160405180910390a25f838152600960209081526040808320805482518185028101850190935280835291929091908301828280156121fa57602002820191905f5260205f20905b8154815260200190600101908083116121e6575b505050505090505f826002018460ff168154811061221a5761221a61289a565b905f5260205f2001549050805f03612233575050505050565b5f5b8251811015612341575f60075f8584815181106122545761225461289a565b602002602001015181526020019081526020015f2090508560ff168160010160149054906101000a900460ff1660ff1603612338575f6122ac85848151811061229f5761229f61289a565b6020026020010151610e44565b600687015460018401549192506122d0916001600160a01b039182169116836123d4565b600182015485516001600160a01b03909116908690859081106122f5576122f561289a565b60200260200101517f0c1d0b01dca2a1254c5ae35fc7cc488d6369384dd03afd78bd9484231d4a66ec8360405161232e91815260200190565b60405180910390a3505b50600101612235565b505050505050565b5f5f60205f8451602086015f885af180612368576040513d5f823e3d81fd5b50505f513d9150811561237f57806001141561238c565b6001600160a01b0384163b155b15610e305783604051635274afe760e01b815260040161076491906124ab565b8051156123bb57805160208201fd5b60405163d6bda27560e01b815260040160405180910390fd5b6001600160a01b0383166123f557611f0b6001600160a01b03831682611c20565b611f0b6001600160a01b0384168383611f10565b828054828255905f5260205f20908101928215612442579160200282015b82811115612442578251825591602001919060010190612427565b5061244e929150612452565b5090565b5b8082111561244e575f8155600101612453565b5f60208284031215612476575f5ffd5b5035919050565b5f6020828403121561248d575f5ffd5b81356001600160e01b0319811681146124a4575f5ffd5b9392505050565b6001600160a01b0391909116815260200190565b602080825282518282018190525f918401906040840190835b818110156124f65783518352602093840193909201916001016124d8565b509095945050505050565b803560ff81168114612511575f5ffd5b919050565b5f5f5f60608486031215612528575f5ffd5b8335925061253860208501612501565b929592945050506040919091013590565b6001600160a01b0381168114611724575f5ffd5b5f5f5f6060848603121561256f575f5ffd5b61257884612501565b925060208401359150604084013561258f81612549565b809150509250925092565b5f5f604083850312156125ab575f5ffd5b50508035926020909101359150565b5f5f83601f8401126125ca575f5ffd5b50813567ffffffffffffffff8111156125e1575f5ffd5b6020830191508360208285010111156125f8575f5ffd5b9250929050565b5f5f5f5f60408587031215612612575f5ffd5b843567ffffffffffffffff811115612628575f5ffd5b612634878288016125ba565b909550935050602085013567ffffffffffffffff811115612653575f5ffd5b61265f878288016125ba565b95989497509550505050565b5f5f6040838503121561267c575f5ffd5b823561268781612549565b946020939093013593505050565b5f5f602083850312156126a6575f5ffd5b823567ffffffffffffffff8111156126bc575f5ffd5b6126c8858286016125ba565b90969095509350505050565b5f602082840312156126e4575f5ffd5b81356124a481612549565b5f5f60408385031215612700575f5ffd5b8235915061271060208401612501565b90509250929050565b5f8151808452602084019350602083015f5b8281101561274957815186526020958601959091019060010161272b565b5093949350505050565b60208152815160208201525f6020830151612773604084018260ff169052565b506040830151610140606084015261278f610160840182612719565b905060608401516080840152608084015160a084015260a08401516127b960c085018260ff169052565b5060c084015180151560e08501525060e08401516001600160a01b038116610100850152506101008401516001600160a01b038116610120850152506101208401516101408401528091505092915050565b60208082526015908201527413585c9ad95d08191bd95cc81b9bdd08195e1a5cdd605a1b604082015260600190565b6020808252600f908201526e496e76616c6964206f7574636f6d6560881b604082015260600190565b6020808252601d908201527f416d6f756e74206d7573742062652067726561746572207468616e2030000000604082015260600190565b634e487b7160e01b5f52603260045260245ffd5b634e487b7160e01b5f52601160045260245ffd5b8082018082111561073a5761073a6128ae565b808202811582820484141761073a5761073a6128ae565b5f8261290657634e487b7160e01b5f52601260045260245ffd5b500490565b60208082526017908201527613585c9ad95d08185b1c9958591e481c995cdbdb1d9959604a1b604082015260600190565b5f6020828403121561294c575f5ffd5b5051919050565b818382375f9101908152919050565b634e487b7160e01b5f52604160045260245ffd5b805160208201516001600160b01b031981169190600a8210156129ad576001600160b01b0319600a83900360031b81901b82161692505b5050919050565b60208082526017908201527613585c9ad95d081b9bdd08199a5b9a5cda1959081e595d604a1b604082015260600190565b5f600182016129f6576129f66128ae565b5060010190565b5f5f85851115612a0b575f5ffd5b83861115612a17575f5ffd5b5050820193919092039150565b5f60208284031215612a34575f5ffd5b6124a482612501565b5f5f5f5f5f5f60c08789031215612a52575f5ffd5b612a5b87612501565b95506020870135612a6b81612549565b945060408701359350612a8060608801612501565b92506080870135915060a0870135612a9781612549565b809150509295509295509295565b5f5f5f60608486031215612ab7575f5ffd5b612ac084612501565b925060208401359150612ad560408501612501565b90509250925092565b5f5f5f5f5f5f60c08789031215612af3575f5ffd5b612afc87612501565b9550612b0a60208801612501565b9450604087013593506060870135612b2181612549565b92506080870135612b3181612549565b9598949750929591949360a09092013592505056fea26469706673582212204be2d503786f383fd90c5431432e8efb1643331f042e74333739cd052c89f93d64736f6c634300081c0033",
  "linkReferences": {},
  "deployedLinkReferences": {},
  "immutableReferences": {},
  "inputSourceName": "project/contracts/PredictionMarket.sol",
  "buildInfoId": "solc-0_8_28-e7b7acd8d3c4a3fe38dc90c3457d968a475f8427"
}