{
  "_format": "hh3-artifact-1",
  "contractName": "PredictionMarket",
  "sourceName": "contracts/PredictionMarket.sol",
  "abi": [
    {
      "inputs": [
        {
          "internalType": "address",
          "name": "_forwarderAddress",
          "type": "address"
        }
      ],
      "stateMutability": "nonpayable",
      "type": "constructor"
    },
    {
      "inputs": [],
      "name": "FailedCall",
      "type": "error"
    },
    {
      "inputs": [
        {
          "internalType": "uint256",
          "name": "balance",
          "type": "uint256"
        },
        {
          "internalType": "uint256",
          "name": "needed",
          "type": "uint256"
        }
      ],
      "name": "InsufficientBalance",
      "type": "error"
    },
    {
      "inputs": [
        {
          "internalType": "address",
          "name": "received",
          "type": "address"
        },
        {
          "internalType": "address",
          "name": "expected",
          "type": "address"
        }
      ],
      "name": "InvalidAuthor",
      "type": "error"
    },
    {
      "inputs": [],
      "name": "InvalidForwarderAddress",
      "type": "error"
    },
    {
      "inputs": [
        {
          "internalType": "address",
          "name": "sender",
          "type": "address"
        },
        {
          "internalType": "address",
          "name": "expected",
          "type": "address"
        }
      ],
      "name": "InvalidSender",
      "type": "error"
    },
    {
      "inputs": [
        {
          "internalType": "bytes32",
          "name": "received",
          "type": "bytes32"
        },
        {
          "internalType": "bytes32",
          "name": "expected",
          "type": "bytes32"
        }
      ],
      "name": "InvalidWorkflowId",
      "type": "error"
    },
    {
      "inputs": [
        {
          "internalType": "bytes10",
          "name": "received",
          "type": "bytes10"
        },
        {
          "internalType": "bytes10",
          "name": "expected",
          "type": "bytes10"
        }
      ],
      "name": "InvalidWorkflowName",
      "type": "error"
    },
    {
      "inputs": [
        {
          "internalType": "address",
          "name": "owner",
          "type": "address"
        }
      ],
      "name": "OwnableInvalidOwner",
      "type": "error"
    },
    {
      "inputs": [
        {
          "internalType": "address",
          "name": "account",
          "type": "address"
        }
      ],
      "name": "OwnableUnauthorizedAccount",
      "type": "error"
    },
    {
      "inputs": [
        {
          "internalType": "address",
          "name": "token",
          "type": "address"
        }
      ],
      "name": "SafeERC20FailedOperation",
      "type": "error"
    },
    {
      "inputs": [],
      "name": "WorkflowNameRequiresAuthorValidation",
      "type": "error"
    },
    {
      "anonymous": false,
      "inputs": [
        {
          "indexed": true,
          "internalType": "address",
          "name": "owner",
          "type": "address"
        },
        {
          "indexed": false,
          "internalType": "uint256",
          "name": "amount",
          "type": "uint256"
        }
      ],
      "name": "EmergencyWithdrawETH",
      "type": "event"
    },
    {
      "anonymous": false,
      "inputs": [
        {
          "indexed": true,
          "internalType": "address",
          "name": "owner",
          "type": "address"
        },
        {
          "indexed": true,
          "internalType": "address",
          "name": "token",
          "type": "address"
        },
        {
          "indexed": false,
          "internalType": "uint256",
          "name": "amount",
          "type": "uint256"
        }
      ],
      "name": "EmergencyWithdrawToken",
      "type": "event"
    },
    {
      "anonymous": false,
      "inputs": [
        {
          "indexed": true,
          "internalType": "address",
          "name": "previousAuthor",
          "type": "address"
        },
        {
          "indexed": true,
          "internalType": "address",
          "name": "newAuthor",
          "type": "address"
        }
      ],
      "name": "ExpectedAuthorUpdated",
      "type": "event"
    },
    {
      "anonymous": false,
      "inputs": [
        {
          "indexed": true,
          "internalType": "bytes32",
          "name": "previousId",
          "type": "bytes32"
        },
        {
          "indexed": true,
          "internalType": "bytes32",
          "name": "newId",
          "type": "bytes32"
        }
      ],
      "name": "ExpectedWorkflowIdUpdated",
      "type": "event"
    },
    {
      "anonymous": false,
      "inputs": [
        {
          "indexed": true,
          "internalType": "bytes10",
          "name": "previousName",
          "type": "bytes10"
        },
        {
          "indexed": true,
          "internalType": "bytes10",
          "name": "newName",
          "type": "bytes10"
        }
      ],
      "name": "ExpectedWorkflowNameUpdated",
      "type": "event"
    },
    {
      "anonymous": false,
      "inputs": [
        {
          "indexed": true,
          "internalType": "address",
          "name": "previousForwarder",
          "type": "address"
        },
        {
          "indexed": true,
          "internalType": "address",
          "name": "newForwarder",
          "type": "address"
        }
      ],
      "name": "ForwarderAddressUpdated",
      "type": "event"
    },
    {
      "anonymous": false,
      "inputs": [
        {
          "indexed": true,
          "internalType": "uint256",
          "name": "marketId",
          "type": "uint256"
        },
        {
          "indexed": true,
          "internalType": "address",
          "name": "creator",
          "type": "address"
        },
        {
          "indexed": false,
          "internalType": "uint8",
          "name": "outcomeCount",
          "type": "uint8"
        },
        {
          "indexed": false,
          "internalType": "uint256",
          "name": "startsAt",
          "type": "uint256"
        },
        {
          "indexed": false,
          "internalType": "uint256",
          "name": "finishesAt",
          "type": "uint256"
        },
        {
          "indexed": false,
          "internalType": "address",
          "name": "paymentToken",
          "type": "address"
        }
      ],
      "name": "MarketCreated",
      "type": "event"
    },
    {
      "anonymous": false,
      "inputs": [
        {
          "indexed": true,
          "internalType": "uint256",
          "name": "marketId",
          "type": "uint256"
        },
        {
          "indexed": false,
          "internalType": "uint8",
          "name": "winningOutcome",
          "type": "uint8"
        },
        {
          "indexed": false,
          "internalType": "uint256",
          "name": "totalPool",
          "type": "uint256"
        },
        {
          "indexed": false,
          "internalType": "uint256",
          "name": "timestamp",
          "type": "uint256"
        }
      ],
      "name": "MarketResolved",
      "type": "event"
    },
    {
      "anonymous": false,
      "inputs": [
        {
          "indexed": true,
          "internalType": "address",
          "name": "previousOwner",
          "type": "address"
        },
        {
          "indexed": true,
          "internalType": "address",
          "name": "newOwner",
          "type": "address"
        }
      ],
      "name": "OwnershipTransferred",
      "type": "event"
    },
    {
      "anonymous": false,
      "inputs": [
        {
          "indexed": true,
          "internalType": "uint256",
          "name": "predictionId",
          "type": "uint256"
        },
        {
          "indexed": true,
          "internalType": "uint256",
          "name": "marketId",
          "type": "uint256"
        },
        {
          "indexed": true,
          "internalType": "address",
          "name": "predictor",
          "type": "address"
        },
        {
          "indexed": false,
          "internalType": "uint8",
          "name": "outcome",
          "type": "uint8"
        },
        {
          "indexed": false,
          "internalType": "uint256",
          "name": "amount",
          "type": "uint256"
        },
        {
          "indexed": false,
          "internalType": "uint256",
          "name": "timestamp",
          "type": "uint256"
        }
      ],
      "name": "PredictionPlaced",
      "type": "event"
    },
    {
      "anonymous": false,
      "inputs": [
        {
          "indexed": false,
          "internalType": "string",
          "name": "message",
          "type": "string"
        }
      ],
      "name": "SecurityWarning",
      "type": "event"
    },
    {
      "anonymous": false,
      "inputs": [
        {
          "indexed": true,
          "internalType": "uint256",
          "name": "predictionId",
          "type": "uint256"
        },
        {
          "indexed": true,
          "internalType": "address",
          "name": "predictor",
          "type": "address"
        },
        {
          "indexed": false,
          "internalType": "uint256",
          "name": "amount",
          "type": "uint256"
        }
      ],
      "name": "WinningsPaid",
      "type": "event"
    },
    {
      "inputs": [
        {
          "internalType": "uint256",
          "name": "_marketId",
          "type": "uint256"
        },
        {
          "internalType": "uint8",
          "name": "_outcome",
          "type": "uint8"
        },
        {
          "internalType": "uint256",
          "name": "_amount",
          "type": "uint256"
        }
      ],
      "name": "calculatePotentialWinnings",
      "outputs": [
        {
          "internalType": "uint256",
          "name": "",
          "type": "uint256"
        }
      ],
      "stateMutability": "view",
      "type": "function"
    },
    {
      "inputs": [
        {
          "internalType": "uint256",
          "name": "_predictionId",
          "type": "uint256"
        }
      ],
      "name": "calculateWinnings",
      "outputs": [
        {
          "internalType": "uint256",
          "name": "",
          "type": "uint256"
        }
      ],
      "stateMutability": "view",
      "type": "function"
    },
    {
      "inputs": [
        {
          "internalType": "uint8",
          "name": "_outcomeCount",
          "type": "uint8"
        },
        {
          "internalType": "uint256",
          "name": "_startsAt",
          "type": "uint256"
        },
        {
          "internalType": "uint256",
          "name": "_finishesAt",
          "type": "uint256"
        },
        {
          "internalType": "address",
          "name": "_paymentToken",
          "type": "address"
        }
      ],
      "name": "createMarket",
      "outputs": [
        {
          "internalType": "uint256",
          "name": "",
          "type": "uint256"
        }
      ],
      "stateMutability": "nonpayable",
      "type": "function"
    },
    {
      "inputs": [
        {
          "internalType": "uint256",
          "name": "_amount",
          "type": "uint256"
        }
      ],
      "name": "emergencyWithdrawETH",
      "outputs": [],
      "stateMutability": "nonpayable",
      "type": "function"
    },
    {
      "inputs": [
        {
          "internalType": "address",
          "name": "_token",
          "type": "address"
        },
        {
          "internalType": "uint256",
          "name": "_amount",
          "type": "uint256"
        }
      ],
      "name": "emergencyWithdrawToken",
      "outputs": [],
      "stateMutability": "nonpayable",
      "type": "function"
    },
    {
      "inputs": [],
      "name": "getExpectedAuthor",
      "outputs": [
        {
          "internalType": "address",
          "name": "",
          "type": "address"
        }
      ],
      "stateMutability": "view",
      "type": "function"
    },
    {
      "inputs": [],
      "name": "getExpectedWorkflowId",
      "outputs": [
        {
          "internalType": "bytes32",
          "name": "",
          "type": "bytes32"
        }
      ],
      "stateMutability": "view",
      "type": "function"
    },
    {
      "inputs": [],
      "name": "getExpectedWorkflowName",
      "outputs": [
        {
          "internalType": "bytes10",
          "name": "",
          "type": "bytes10"
        }
      ],
      "stateMutability": "view",
      "type": "function"
    },
    {
      "inputs": [],
      "name": "getForwarderAddress",
      "outputs": [
        {
          "internalType": "address",
          "name": "",
          "type": "address"
        }
      ],
      "stateMutability": "view",
      "type": "function"
    },
    {
      "inputs": [
        {
          "internalType": "uint256",
          "name": "_marketId",
          "type": "uint256"
        }
      ],
      "name": "getMarket",
      "outputs": [
        {
          "internalType": "uint256",
          "name": "id",
          "type": "uint256"
        },
        {
          "internalType": "uint8",
          "name": "outcomeCount",
          "type": "uint8"
        },
        {
          "internalType": "uint256[]",
          "name": "outcomePools",
          "type": "uint256[]"
        },
        {
          "internalType": "uint256",
          "name": "totalPool",
          "type": "uint256"
        },
        {
          "internalType": "uint256",
          "name": "startsAt",
          "type": "uint256"
        },
        {
          "internalType": "uint256",
          "name": "finishesAt",
          "type": "uint256"
        },
        {
          "internalType": "uint8",
          "name": "winningOutcome",
          "type": "uint8"
        },
        {
          "internalType": "bool",
          "name": "isResolved",
          "type": "bool"
        },
        {
          "internalType": "address",
          "name": "creator",
          "type": "address"
        },
        {
          "internalType": "address",
          "name": "paymentToken",
          "type": "address"
        }
      ],
      "stateMutability": "view",
      "type": "function"
    },
    {
      "inputs": [
        {
          "internalType": "uint256",
          "name": "_marketId",
          "type": "uint256"
        }
      ],
      "name": "getMarketPredictions",
      "outputs": [
        {
          "internalType": "uint256[]",
          "name": "",
          "type": "uint256[]"
        }
      ],
      "stateMutability": "view",
      "type": "function"
    },
    {
      "inputs": [
        {
          "internalType": "uint256",
          "name": "_predictionId",
          "type": "uint256"
        }
      ],
      "name": "getPrediction",
      "outputs": [
        {
          "internalType": "uint256",
          "name": "marketId",
          "type": "uint256"
        },
        {
          "internalType": "address",
          "name": "predictor",
          "type": "address"
        },
        {
          "internalType": "uint8",
          "name": "outcome",
          "type": "uint8"
        },
        {
          "internalType": "uint256",
          "name": "amount",
          "type": "uint256"
        }
      ],
      "stateMutability": "view",
      "type": "function"
    },
    {
      "inputs": [
        {
          "internalType": "address",
          "name": "_user",
          "type": "address"
        }
      ],
      "name": "getUserPredictions",
      "outputs": [
        {
          "internalType": "uint256[]",
          "name": "",
          "type": "uint256[]"
        }
      ],
      "stateMutability": "view",
      "type": "function"
    },
    {
      "inputs": [],
      "name": "marketCount",
      "outputs": [
        {
          "internalType": "uint256",
          "name": "",
          "type": "uint256"
        }
      ],
      "stateMutability": "view",
      "type": "function"
    },
    {
      "inputs": [
        {
          "internalType": "uint256",
          "name": "",
          "type": "uint256"
        },
        {
          "internalType": "uint256",
          "name": "",
          "type": "uint256"
        }
      ],
      "name": "marketPredictions",
      "outputs": [
        {
          "internalType": "uint256",
          "name": "",
          "type": "uint256"
        }
      ],
      "stateMutability": "view",
      "type": "function"
    },
    {
      "inputs": [
        {
          "internalType": "uint256",
          "name": "",
          "type": "uint256"
        }
      ],
      "name": "markets",
      "outputs": [
        {
          "internalType": "uint256",
          "name": "id",
          "type": "uint256"
        },
        {
          "internalType": "uint8",
          "name": "outcomeCount",
          "type": "uint8"
        },
        {
          "internalType": "uint256",
          "name": "totalPool",
          "type": "uint256"
        },
        {
          "internalType": "uint256",
          "name": "startsAt",
          "type": "uint256"
        },
        {
          "internalType": "uint256",
          "name": "finishesAt",
          "type": "uint256"
        },
        {
          "internalType": "uint8",
          "name": "winningOutcome",
          "type": "uint8"
        },
        {
          "internalType": "bool",
          "name": "isResolved",
          "type": "bool"
        },
        {
          "internalType": "address",
          "name": "creator",
          "type": "address"
        },
        {
          "internalType": "address",
          "name": "paymentToken",
          "type": "address"
        }
      ],
      "stateMutability": "view",
      "type": "function"
    },
    {
      "inputs": [
        {
          "internalType": "bytes",
          "name": "metadata",
          "type": "bytes"
        },
        {
          "internalType": "bytes",
          "name": "report",
          "type": "bytes"
        }
      ],
      "name": "onReport",
      "outputs": [],
      "stateMutability": "nonpayable",
      "type": "function"
    },
    {
      "inputs": [],
      "name": "owner",
      "outputs": [
        {
          "internalType": "address",
          "name": "",
          "type": "address"
        }
      ],
      "stateMutability": "view",
      "type": "function"
    },
    {
      "inputs": [
        {
          "internalType": "uint256",
          "name": "_marketId",
          "type": "uint256"
        },
        {
          "internalType": "uint8",
          "name": "_outcome",
          "type": "uint8"
        },
        {
          "internalType": "uint256",
          "name": "_amount",
          "type": "uint256"
        }
      ],
      "name": "predict",
      "outputs": [],
      "stateMutability": "payable",
      "type": "function"
    },
    {
      "inputs": [],
      "name": "predictionCount",
      "outputs": [
        {
          "internalType": "uint256",
          "name": "",
          "type": "uint256"
        }
      ],
      "stateMutability": "view",
      "type": "function"
    },
    {
      "inputs": [
        {
          "internalType": "uint256",
          "name": "",
          "type": "uint256"
        }
      ],
      "name": "predictions",
      "outputs": [
        {
          "internalType": "uint256",
          "name": "marketId",
          "type": "uint256"
        },
        {
          "internalType": "address",
          "name": "predictor",
          "type": "address"
        },
        {
          "internalType": "uint8",
          "name": "outcome",
          "type": "uint8"
        },
        {
          "internalType": "uint256",
          "name": "amount",
          "type": "uint256"
        }
      ],
      "stateMutability": "view",
      "type": "function"
    },
    {
      "inputs": [],
      "name": "renounceOwnership",
      "outputs": [],
      "stateMutability": "nonpayable",
      "type": "function"
    },
    {
      "inputs": [
        {
          "internalType": "uint256",
          "name": "_marketId",
          "type": "uint256"
        },
        {
          "internalType": "uint8",
          "name": "_winningOutcome",
          "type": "uint8"
        }
      ],
      "name": "resolveMarket",
      "outputs": [],
      "stateMutability": "nonpayable",
      "type": "function"
    },
    {
      "inputs": [
        {
          "internalType": "address",
          "name": "_author",
          "type": "address"
        }
      ],
      "name": "setExpectedAuthor",
      "outputs": [],
      "stateMutability": "nonpayable",
      "type": "function"
    },
    {
      "inputs": [
        {
          "internalType": "bytes32",
          "name": "_id",
          "type": "bytes32"
        }
      ],
      "name": "setExpectedWorkflowId",
      "outputs": [],
      "stateMutability": "nonpayable",
      "type": "function"
    },
    {
      "inputs": [
        {
          "internalType": "string",
          "name": "_name",
          "type": "string"
        }
      ],
      "name": "setExpectedWorkflowName",
      "outputs": [],
      "stateMutability": "nonpayable",
      "type": "function"
    },
    {
      "inputs": [
        {
          "internalType": "address",
          "name": "_forwarder",
          "type": "address"
        }
      ],
      "name": "setForwarderAddress",
      "outputs": [],
      "stateMutability": "nonpayable",
      "type": "function"
    },
    {
      "inputs": [
        {
          "internalType": "bytes4",
          "name": "interfaceId",
          "type": "bytes4"
        }
      ],
      "name": "supportsInterface",
      "outputs": [
        {
          "internalType": "bool",
          "name": "",
          "type": "bool"
        }
      ],
      "stateMutability": "view",
      "type": "function"
    },
    {
      "inputs": [
        {
          "internalType": "address",
          "name": "newOwner",
          "type": "address"
        }
      ],
      "name": "transferOwnership",
      "outputs": [],
      "stateMutability": "nonpayable",
      "type": "function"
    },
    {
      "inputs": [
        {
          "internalType": "address",
          "name": "",
          "type": "address"
        },
        {
          "internalType": "uint256",
          "name": "",
          "type": "uint256"
        }
      ],
      "name": "userPredictions",
      "outputs": [
        {
          "internalType": "uint256",
          "name": "",
          "type": "uint256"
        }
      ],
      "stateMutability": "view",
      "type": "function"
    }
  ],
  "bytecode": "0x608060405234801561000f575f5ffd5b506040516129d33803806129d383398101604081905261002e91610122565b80338061005457604051631e4fbdf760e01b81525f600482015260240160405180910390fd5b61005d816100d3565b506001600160a01b0381166100845760405162e0775560e61b815260040160405180910390fd5b600180546001600160a01b0319166001600160a01b0383169081179091556040515f907f039ad854736757070884dd787ef1a7f58db33546639d1f3efddcf4a33fb8997e908290a3505061014f565b5f80546001600160a01b038381166001600160a01b0319831681178455604051919092169283917f8be0079c531659141344cd1fd0a4f28419497f9722a3daafe3b4186f6b6457e09190a35050565b5f60208284031215610132575f5ffd5b81516001600160a01b0381168114610148575f5ffd5b9392505050565b6128778061015c5f395ff3fe608060405260043610610188575f3560e01c8063a4c3b091116100d4578063d777cc6d11610083578063d777cc6d14610568578063df55406e14610587578063eb44fdd3146105a6578063ec979082146105db578063f2fde38b146105f0578063f5c793ef1461060f578063f6c3317914610623578063fe83bece14610642575f5ffd5b8063a4c3b091146103c9578063a619d818146103e8578063b1283e771461041a578063bc1fc27a146104ec578063c285f8531461050b578063c3c44ac21461052a578063d60c884b14610549575f5ffd5b806350ae97161161013b57806350ae9716146102fb5780636b792c4b146103105780636dffbcb71461032f578063715018a61461034e578063805f2132146103625780638da5cb5b146103815780638e0596a214610395578063a2e279eb146103aa575f5ffd5b80624fbbb01461018c57806301ffc9a7146102115780633397cf67146102405780633441856f146102665780633b830b64146102835780633c86e61b146102b057806341fdb485146102dc575b5f5ffd5b348015610197575f5ffd5b506101dc6101a63660046122f4565b60076020525f908152604090208054600182015460029092015490916001600160a01b03811691600160a01b90910460ff169084565b604080519485526001600160a01b03909316602085015260ff9091169183019190915260608201526080015b60405180910390f35b34801561021c575f5ffd5b5061023061022b36600461230b565b610691565b6040519015158152602001610208565b34801561024b575f5ffd5b506002546001600160a01b03165b6040516102089190612339565b348015610271575f5ffd5b506001546001600160a01b0316610259565b34801561028e575f5ffd5b506102a261029d366004612376565b6106c7565b604051908152602001610208565b3480156102bb575f5ffd5b506102cf6102ca3660046122f4565b6108ff565b60405161020891906123f5565b3480156102e7575f5ffd5b506102a26102f6366004612407565b610981565b61030e610309366004612407565b610a71565b005b34801561031b575f5ffd5b5061030e61032a3660046122f4565b610cca565b34801561033a575f5ffd5b506102a261034936600461243a565b610da9565b348015610359575f5ffd5b5061030e610dd4565b34801561036d575f5ffd5b5061030e61037c36600461249f565b610de7565b34801561038c575f5ffd5b50610259611018565b3480156103a0575f5ffd5b506102a260055481565b3480156103b5575f5ffd5b506102a26103c43660046122f4565b611026565b3480156103d4575f5ffd5b5061030e6103e336600461250b565b6110e5565b3480156103f3575f5ffd5b50600254600160a01b900460b01b6040516001600160b01b03199091168152602001610208565b348015610425575f5ffd5b506104956104343660046122f4565b600660208190525f91825260409091208054600182015460038301546004840154600585015495850154600790950154939560ff93841695929491939092808216926101008204909216916001600160a01b03620100009092048216911689565b60408051998a5260ff98891660208b01528901969096526060880194909452608087019290925290931660a085015291151560c08401526001600160a01b0391821660e08401521661010082015261012001610208565b3480156104f7575f5ffd5b5061030e610506366004612535565b61128c565b348015610516575f5ffd5b506102cf610525366004612574565b611466565b348015610535575f5ffd5b5061030e6105443660046122f4565b6114cf565b348015610554575f5ffd5b5061030e610563366004612574565b61150f565b348015610573575f5ffd5b5061030e610582366004612574565b611568565b348015610592575f5ffd5b5061030e6105a136600461258f565b61165e565b3480156105b1575f5ffd5b506105c56105c03660046122f4565b6119ca565b6040516102089a999897969594939291906125b9565b3480156105e6575f5ffd5b506102a260045481565b3480156105fb575f5ffd5b5061030e61060a366004612574565b611ac9565b34801561061a575f5ffd5b506003546102a2565b34801561062e575f5ffd5b506102a261063d36600461250b565b611b06565b34801561064d575f5ffd5b506101dc61065c3660046122f4565b5f9081526007602052604090208054600182015460029092015490926001600160a01b03831692600160a01b900460ff169190565b5f6001600160e01b0319821663402f909960e11b14806106c157506001600160e01b031982166301ffc9a760e01b145b92915050565b5f60028560ff1610156107215760405162461bcd60e51b815260206004820152601d60248201527f4d7573742068617665206174206c656173742032206f7574636f6d657300000060448201526064015b60405180910390fd5b428410156107715760405162461bcd60e51b815260206004820152601c60248201527f53746172742074696d65206d75737420626520696e20667574757265000000006044820152606401610718565b8383116107c05760405162461bcd60e51b815260206004820152601f60248201527f46696e6973682074696d65206d757374206265206166746572207374617274006044820152606401610718565b600480545f91826107d08361263b565b909155505f81815260066020526040902081815560018101805460ff191660ff8a169081179091559192509067ffffffffffffffff81111561081457610814612653565b60405190808252806020026020018201604052801561083d578160200160208202803683370190505b508051610854916002840191602090910190612297565b505f600382015560048101869055600581018590556006810180546001600160b01b03191633620100008102919091179091556007820180546001600160a01b0319166001600160a01b0387169081179091556040805160ff8b168152602081018a9052908101889052606081019190915283907f3ebe146b2cd8c94c04a77cd7ef6e9ae2bbe0dcd5be871d708526cd271323afc99060800160405180910390a35095945050505050565b60608160045481106109235760405162461bcd60e51b815260040161071890612667565b5f838152600960209081526040918290208054835181840281018401909452808452909183018282801561097457602002820191905f5260205f20905b815481526020019060010190808311610960575b5050505050915050919050565b5f8360045481106109a45760405162461bcd60e51b815260040161071890612667565b5f858152600660205260409020600181015460ff908116908616106109db5760405162461bcd60e51b815260040161071890612696565b5f84116109fa5760405162461bcd60e51b8152600401610718906126bf565b5f84826002018760ff1681548110610a1457610a146126f6565b905f5260205f200154610a27919061270a565b90505f858360030154610a3a919061270a565b9050815f03610a4e575f9450505050610a69565b81610a59828861271d565b610a639190612734565b94505050505b509392505050565b826004548110610a935760405162461bcd60e51b815260040161071890612667565b5f84815260066020819052604090912001548490610100900460ff1615610acc5760405162461bcd60e51b815260040161071890612753565b5f8581526006602052604090206004810154421015610b225760405162461bcd60e51b815260206004820152601260248201527113585c9ad95d081b9bdd081cdd185c9d195960721b6044820152606401610718565b8060050154421115610b685760405162461bcd60e51b815260206004820152600f60248201526e13585c9ad95d08199a5b9a5cda1959608a1b6044820152606401610718565b600181015460ff90811690861610610b925760405162461bcd60e51b815260040161071890612696565b60078101545f906001600160a01b0316610bf7575f3411610bf05760405162461bcd60e51b8152602060048201526018602482015277135d5cdd081cd95b9908115512081d1bc81c1c99591a58dd60421b6044820152606401610718565b5034610cb5565b3415610c4f5760405162461bcd60e51b815260206004820152602160248201527f446f206e6f742073656e642045544820666f7220746f6b656e206d61726b65746044820152607360f81b6064820152608401610718565b5f8511610c985760405162461bcd60e51b8152602060048201526017602482015276135d5cdd081cdc1958da599e4818995d08185b5bdd5b9d604a1b6044820152606401610718565b5060078101548490610cb5906001600160a01b0316333084611b1f565b610cc133888884611b86565b50505050505050565b610cd2611e30565b5f8111610cf15760405162461bcd60e51b8152600401610718906126bf565b80471015610d415760405162461bcd60e51b815260206004820152601d60248201527f496e73756666696369656e7420636f6e74726163742062616c616e63650000006044820152606401610718565b610d5c81610d4d611018565b6001600160a01b031690611e62565b610d64611018565b6001600160a01b03167f20f907b58305c7b76035bc03b26f32b1c4f6560f96be6f3bb54c5c848a2d4ddd82604051610d9e91815260200190565b60405180910390a250565b6009602052815f5260405f208181548110610dc2575f80fd5b905f5260205f20015f91509150505481565b610ddc611e30565b610de55f611eee565b565b6001546001600160a01b031615801590610e0c57506001546001600160a01b03163314155b15610e3f5760015460405163708986dd60e11b81523360048201526001600160a01b039091166024820152604401610718565b600354151580610e5957506002546001600160a01b031615155b80610e795750600254600160a01b900460b01b6001600160b01b03191615155b15611008575f5f5f610ebf87878080601f0160208091040260200160405190810160405280939291908181526020018383808284375f92019190915250611f3d92505050565b600354929550909350915015801590610eda57506003548314155b15610f0657600354604051634dfd1cdd60e11b8152610718918591600401918252602082015260400190565b6002546001600160a01b031615801590610f2e57506002546001600160a01b03828116911614155b15610f6357600254604051631715315f60e31b81526001600160a01b0380841660048301529091166024820152604401610718565b600254600160a01b900460b01b6001600160b01b03191615611004576002546001600160a01b0316610fa857604051634847901160e01b815260040160405180910390fd5b6002546001600160b01b0319838116600160a01b90920460b01b16146110045760025460405163362304d360e11b81526001600160b01b03198481166004830152600160a01b90920460b01b9091166024820152604401610718565b5050505b6110128282611f56565b50505050565b5f546001600160a01b031690565b5f8181526007602090815260408083208054845260069283905290832091820154909190610100900460ff161580611074575060068101546001830154600160a01b900460ff908116911614155b1561108257505f9392505050565b60068101546002820180545f9260ff169081106110a1576110a16126f6565b905f5260205f2001549050805f036110bd57505f949350505050565b80826003015484600201546110d2919061271d565b6110dc9190612734565b95945050505050565b6110ed611e30565b6001600160a01b03821661113b5760405162461bcd60e51b8152602060048201526015602482015274496e76616c696420746f6b656e206164647265737360581b6044820152606401610718565b5f811161115a5760405162461bcd60e51b8152600401610718906126bf565b6040516370a0823160e01b8152829082906001600160a01b038316906370a082319061118a903090600401612339565b602060405180830381865afa1580156111a5573d5f5f3e3d5ffd5b505050506040513d601f19601f820116820180604052508101906111c99190612784565b10156112175760405162461bcd60e51b815260206004820152601a60248201527f496e73756666696369656e7420746f6b656e2062616c616e63650000000000006044820152606401610718565b611233611222611018565b6001600160a01b0383169084611fe4565b826001600160a01b0316611245611018565b6001600160a01b03167fda0612d7ca9ff90ca7143a6021ba8938994f8d045b2834ae585fd07b27ea697c8460405161127f91815260200190565b60405180910390a3505050565b611294611e30565b600254600160a01b900460b01b5f8290036112f75760028054600160a01b600160f01b03191690556040515f906001600160b01b03198316907f1e7ddd09d504c82dcfc784a464b167469f5aad967606ec4822d848ef9141dfa5908390a3505050565b5f6002848460405161130a92919061279b565b602060405180830381855afa158015611325573d5f5f3e3d5ffd5b5050506040513d601f19601f820116820180604052508101906113489190612784565b90505f6113758260405160200161136191815260200190565b60405160208183030381529060405261201a565b60408051600a8082528183019092529192505f91906020820181803683370190505090505f5b600a8110156113f1578281815181106113b6576113b66126f6565b602001015160f81c60f81b8282815181106113d3576113d36126f6565b60200101906001600160f81b03191690815f1a90535060010161139b565b506113fb816127aa565b60028054600160a01b600160f01b031916600160a01b60b093841c81029190911791829055604051910490911b6001600160b01b031990811691908616907f1e7ddd09d504c82dcfc784a464b167469f5aad967606ec4822d848ef9141dfa5905f90a3505050505050565b6001600160a01b0381165f908152600860209081526040918290208054835181840281018401909452808452606093928301828280156114c357602002820191905f5260205f20905b8154815260200190600101908083116114af575b50505050509050919050565b6114d7611e30565b6003805490829055604051829082907f0dbedcdf21925e053b4c574eae180d7f2883235ab4976ecc0873598a2a999b03905f90a35050565b611517611e30565b600280546001600160a01b038381166001600160a01b0319831681179093556040519116919082907f3321cda85c145617e47418aa14255e9dcbec53a753778e57591703b89a3cad31905f90a35050565b611570611e30565b6001546001600160a01b0390811690821661160e577f704da7db165c79c1e33d542c079333bbde970a733032d2f95fec8fb7d770cbf76040516116059060208082526038908201527f466f7277617264657220616464726573732073657420746f207a65726f202d20604082015277636f6e7472616374206973206e6f7720494e53454355524560401b606082015260800190565b60405180910390a15b600180546001600160a01b0319166001600160a01b0384811691821790925560405190918316907f039ad854736757070884dd787ef1a7f58db33546639d1f3efddcf4a33fb8997e905f90a35050565b8160045481106116805760405162461bcd60e51b815260040161071890612667565b5f83815260066020819052604090912001548390610100900460ff16156116b95760405162461bcd60e51b815260040161071890612753565b5f84815260066020819052604090912001546201000090046001600160a01b031633146117235760405162461bcd60e51b81526020600482015260186024820152774f6e6c792063726561746f722063616e207265736f6c766560401b6044820152606401610718565b5f84815260066020526040902060050154421161177c5760405162461bcd60e51b815260206004820152601760248201527613585c9ad95d081b9bdd08199a5b9a5cda1959081e595d604a1b6044820152606401610718565b5f8481526006602052604090206001015460ff908116908416106117b25760405162461bcd60e51b815260040161071890612696565b5f84815260066020818152604092839020918201805460ff881661ffff19909116811761010017909155600383015484519182529181019190915242928101929092529085907f503d167e0856e2f40aaac2dac6550f9543efb837691cc189cde53b0172e4f32b9060600160405180910390a25f8581526009602090815260408083208054825181850281018501909352808352919290919083018282801561187857602002820191905f5260205f20905b815481526020019060010190808311611864575b505050505090505f826002018660ff1681548110611898576118986126f6565b905f5260205f2001549050805f036118b257505050611012565b5f5b82518110156119c0575f60075f8584815181106118d3576118d36126f6565b602002602001015181526020019081526020015f2090508760ff168160010160149054906101000a900460ff1660ff16036119b7575f61192b85848151811061191e5761191e6126f6565b6020026020010151611026565b6007870154600184015491925061194f916001600160a01b039182169116836121d7565b600182015485516001600160a01b0390911690869085908110611974576119746126f6565b60200260200101517f0c1d0b01dca2a1254c5ae35fc7cc488d6369384dd03afd78bd9484231d4a66ec836040516119ad91815260200190565b60405180910390a3505b506001016118b4565b5050505050505050565b5f5f60605f5f5f5f5f5f5f8a60045481106119f75760405162461bcd60e51b815260040161071890612667565b5f8c815260066020818152604092839020805460018201546003830154600484015460058501549685015460078601546002870180548b51818b0281018b01909c52808c52979a969960ff968716999198959794969095848216956101008604909216946001600160a01b036201000090910481169416928a9190830182828015611a9f57602002820191905f5260205f20905b815481526020019060010190808311611a8b575b505050505097509b509b509b509b509b509b509b509b509b509b5050509193959799509193959799565b611ad1611e30565b6001600160a01b038116611afa575f604051631e4fbdf760e01b81526004016107189190612339565b611b0381611eee565b50565b6008602052815f5260405f208181548110610dc2575f80fd5b6040516001600160a01b0384811660248301528381166044830152606482018390526110129186918216906323b872dd906084015b604051602081830303815290604052915060e01b6020820180516001600160e01b03838183161783525050505061220c565b5f8381526006602052604090206001600160a01b038516611be55760405162461bcd60e51b8152602060048201526019602482015278496e76616c696420707265646963746f72206164647265737360381b6044820152606401610718565b600181015460ff90811690841610611c0f5760405162461bcd60e51b815260040161071890612696565b5f8211611c2e5760405162461bcd60e51b8152600401610718906126bf565b8060040154421015611c825760405162461bcd60e51b815260206004820152601a60248201527f4d61726b657420686173206e6f742073746172746564207965740000000000006044820152606401610718565b80600501544210611ccb5760405162461bcd60e51b815260206004820152601360248201527213585c9ad95d081a185cc8199a5b9a5cda1959606a1b6044820152606401610718565b600554604080516080810182528681526001600160a01b03808916602080840182815260ff808b16868801818152606088018c81525f8b8152600787528a812099518a5594516001808b0180549451909616600160a01b026001600160a81b031990941691909916179190911790925590516002968701559281526008825285812080548086018255908252828220018790558a81526009825294852080549384018155855290932001839055830180548592908110611d8d57611d8d6126f6565b905f5260205f20015f828254611da3919061270a565b9250508190555082826003015f828254611dbd919061270a565b909155505060058054905f611dd18361263b565b90915550506040805160ff8616815260208101859052428183015290516001600160a01b03881691879184917ff71596fe917277a92c152c720b67dda8f6ce2c015dcb9d41677b1f6b54d4ea3a919081900360600190a4505050505050565b33611e39611018565b6001600160a01b031614610de5573360405163118cdaa760e01b81526004016107189190612339565b80471015611e8c5760405163cf47918160e01b815247600482015260248101829052604401610718565b5f5f836001600160a01b0316836040515f6040518083038185875af1925050503d805f8114611ed6576040519150601f19603f3d011682016040523d82523d5f602084013e611edb565b606091505b509150915081611012576110128161226f565b5f80546001600160a01b038381166001600160a01b0319831681178455604051919092169283917f8be0079c531659141344cd1fd0a4f28419497f9722a3daafe3b4186f6b6457e09190a35050565b60208101516040820151604a83015160601c9193909250565b5f80808080611f67868801886127e8565b5f84815260066020526040902060070154949950929750909550935091506001600160a01b03808316911614611fd85760405162461bcd60e51b81526020600482015260166024820152750a0c2f2dacadce840e8ded6cadc40dad2e6dac2e8c6d60531b6044820152606401610718565b610cc185858585611b86565b6040516001600160a01b0383811660248301526044820183905261201591859182169063a9059cbb90606401611b54565b505050565b60605f8251600261202b919061271d565b67ffffffffffffffff81111561204357612043612653565b6040519080825280601f01601f19166020018201604052801561206d576020820181803683370190505b5090505f5b83518110156121d0576040518060400160405280601081526020016f181899199a1a9b1b9c1cb0b131b232b360811b81525060048583815181106120b8576120b86126f6565b016020015182516001600160f81b031990911690911c60f81c9081106120e0576120e06126f6565b01602001516001600160f81b031916826120fb83600261271d565b8151811061210b5761210b6126f6565b60200101906001600160f81b03191690815f1a9053506040518060400160405280601081526020016f181899199a1a9b1b9c1cb0b131b232b360811b81525084828151811061215c5761215c6126f6565b602091010151815160f89190911c600f1690811061217c5761217c6126f6565b01602001516001600160f81b0319168261219783600261271d565b6121a290600161270a565b815181106121b2576121b26126f6565b60200101906001600160f81b03191690815f1a905350600101612072565b5092915050565b6001600160a01b0383166121f8576120156001600160a01b03831682611e62565b6120156001600160a01b0384168383611fe4565b5f5f60205f8451602086015f885af18061222b576040513d5f823e3d81fd5b50505f513d9150811561224257806001141561224f565b6001600160a01b0384163b155b156110125783604051635274afe760e01b81526004016107189190612339565b80511561227e57805160208201fd5b60405163d6bda27560e01b815260040160405180910390fd5b828054828255905f5260205f209081019282156122d0579160200282015b828111156122d05782518255916020019190600101906122b5565b506122dc9291506122e0565b5090565b5b808211156122dc575f81556001016122e1565b5f60208284031215612304575f5ffd5b5035919050565b5f6020828403121561231b575f5ffd5b81356001600160e01b031981168114612332575f5ffd5b9392505050565b6001600160a01b0391909116815260200190565b803560ff8116811461235d575f5ffd5b919050565b6001600160a01b0381168114611b03575f5ffd5b5f5f5f5f60808587031215612389575f5ffd5b6123928561234d565b9350602085013592506040850135915060608501356123b081612362565b939692955090935050565b5f8151808452602084019350602083015f5b828110156123eb5781518652602095860195909101906001016123cd565b5093949350505050565b602081525f61233260208301846123bb565b5f5f5f60608486031215612419575f5ffd5b833592506124296020850161234d565b929592945050506040919091013590565b5f5f6040838503121561244b575f5ffd5b50508035926020909101359150565b5f5f83601f84011261246a575f5ffd5b50813567ffffffffffffffff811115612481575f5ffd5b602083019150836020828501011115612498575f5ffd5b9250929050565b5f5f5f5f604085870312156124b2575f5ffd5b843567ffffffffffffffff8111156124c8575f5ffd5b6124d48782880161245a565b909550935050602085013567ffffffffffffffff8111156124f3575f5ffd5b6124ff8782880161245a565b95989497509550505050565b5f5f6040838503121561251c575f5ffd5b823561252781612362565b946020939093013593505050565b5f5f60208385031215612546575f5ffd5b823567ffffffffffffffff81111561255c575f5ffd5b6125688582860161245a565b90969095509350505050565b5f60208284031215612584575f5ffd5b813561233281612362565b5f5f604083850312156125a0575f5ffd5b823591506125b06020840161234d565b90509250929050565b8a815260ff8a16602082015261014060408201525f6125dc61014083018b6123bb565b606083019990995250608081019690965260a086019490945260ff9290921660c0850152151560e08401526001600160a01b0390811661010084015216610120909101529392505050565b634e487b7160e01b5f52601160045260245ffd5b5f6001820161264c5761264c612627565b5060010190565b634e487b7160e01b5f52604160045260245ffd5b60208082526015908201527413585c9ad95d08191bd95cc81b9bdd08195e1a5cdd605a1b604082015260600190565b6020808252600f908201526e496e76616c6964206f7574636f6d6560881b604082015260600190565b6020808252601d908201527f416d6f756e74206d7573742062652067726561746572207468616e2030000000604082015260600190565b634e487b7160e01b5f52603260045260245ffd5b808201808211156106c1576106c1612627565b80820281158282048414176106c1576106c1612627565b5f8261274e57634e487b7160e01b5f52601260045260245ffd5b500490565b60208082526017908201527613585c9ad95d08185b1c9958591e481c995cdbdb1d9959604a1b604082015260600190565b5f60208284031215612794575f5ffd5b5051919050565b818382375f9101908152919050565b805160208201516001600160b01b031981169190600a8210156127e1576001600160b01b0319600a83900360031b81901b82161692505b5050919050565b5f5f5f5f5f60a086880312156127fc575f5ffd5b853561280781612362565b94506020860135935061281c6040870161234d565b925060608601359150608086013561283381612362565b80915050929550929590935056fea2646970667358221220f47fc87113f3a70b6cf861b61813d1e50c3d4e0e8e119e29d6ab2c1fa5b9473d64736f6c634300081c0033",
  "linkReferences": {},
  "deployedLinkReferences": {},
  "immutableReferences": {},
  "inputSourceName": "project/contracts/PredictionMarket.sol",
  "buildInfoId": "solc-0_8_28-36ad8ae2f02ef7b1d8523c3d5e22417a5d0ba46a"
}