{
  "_format": "hh3-artifact-1",
  "contractName": "PredictionMarket",
  "sourceName": "contracts/PredictionMarket.sol",
  "abi": [
    {
      "inputs": [
        {
          "internalType": "address",
          "name": "_forwarderAddress",
          "type": "address"
        }
      ],
      "stateMutability": "nonpayable",
      "type": "constructor"
    },
    {
      "inputs": [],
      "name": "FailedCall",
      "type": "error"
    },
    {
      "inputs": [
        {
          "internalType": "uint256",
          "name": "balance",
          "type": "uint256"
        },
        {
          "internalType": "uint256",
          "name": "needed",
          "type": "uint256"
        }
      ],
      "name": "InsufficientBalance",
      "type": "error"
    },
    {
      "inputs": [
        {
          "internalType": "address",
          "name": "received",
          "type": "address"
        },
        {
          "internalType": "address",
          "name": "expected",
          "type": "address"
        }
      ],
      "name": "InvalidAuthor",
      "type": "error"
    },
    {
      "inputs": [],
      "name": "InvalidForwarderAddress",
      "type": "error"
    },
    {
      "inputs": [
        {
          "internalType": "address",
          "name": "sender",
          "type": "address"
        },
        {
          "internalType": "address",
          "name": "expected",
          "type": "address"
        }
      ],
      "name": "InvalidSender",
      "type": "error"
    },
    {
      "inputs": [
        {
          "internalType": "bytes32",
          "name": "received",
          "type": "bytes32"
        },
        {
          "internalType": "bytes32",
          "name": "expected",
          "type": "bytes32"
        }
      ],
      "name": "InvalidWorkflowId",
      "type": "error"
    },
    {
      "inputs": [
        {
          "internalType": "bytes10",
          "name": "received",
          "type": "bytes10"
        },
        {
          "internalType": "bytes10",
          "name": "expected",
          "type": "bytes10"
        }
      ],
      "name": "InvalidWorkflowName",
      "type": "error"
    },
    {
      "inputs": [
        {
          "internalType": "address",
          "name": "owner",
          "type": "address"
        }
      ],
      "name": "OwnableInvalidOwner",
      "type": "error"
    },
    {
      "inputs": [
        {
          "internalType": "address",
          "name": "account",
          "type": "address"
        }
      ],
      "name": "OwnableUnauthorizedAccount",
      "type": "error"
    },
    {
      "inputs": [
        {
          "internalType": "address",
          "name": "token",
          "type": "address"
        }
      ],
      "name": "SafeERC20FailedOperation",
      "type": "error"
    },
    {
      "inputs": [],
      "name": "WorkflowNameRequiresAuthorValidation",
      "type": "error"
    },
    {
      "anonymous": false,
      "inputs": [
        {
          "indexed": true,
          "internalType": "address",
          "name": "owner",
          "type": "address"
        },
        {
          "indexed": false,
          "internalType": "uint256",
          "name": "amount",
          "type": "uint256"
        }
      ],
      "name": "EmergencyWithdrawETH",
      "type": "event"
    },
    {
      "anonymous": false,
      "inputs": [
        {
          "indexed": true,
          "internalType": "address",
          "name": "owner",
          "type": "address"
        },
        {
          "indexed": true,
          "internalType": "address",
          "name": "token",
          "type": "address"
        },
        {
          "indexed": false,
          "internalType": "uint256",
          "name": "amount",
          "type": "uint256"
        }
      ],
      "name": "EmergencyWithdrawToken",
      "type": "event"
    },
    {
      "anonymous": false,
      "inputs": [
        {
          "indexed": true,
          "internalType": "address",
          "name": "previousAuthor",
          "type": "address"
        },
        {
          "indexed": true,
          "internalType": "address",
          "name": "newAuthor",
          "type": "address"
        }
      ],
      "name": "ExpectedAuthorUpdated",
      "type": "event"
    },
    {
      "anonymous": false,
      "inputs": [
        {
          "indexed": true,
          "internalType": "bytes32",
          "name": "previousId",
          "type": "bytes32"
        },
        {
          "indexed": true,
          "internalType": "bytes32",
          "name": "newId",
          "type": "bytes32"
        }
      ],
      "name": "ExpectedWorkflowIdUpdated",
      "type": "event"
    },
    {
      "anonymous": false,
      "inputs": [
        {
          "indexed": true,
          "internalType": "bytes10",
          "name": "previousName",
          "type": "bytes10"
        },
        {
          "indexed": true,
          "internalType": "bytes10",
          "name": "newName",
          "type": "bytes10"
        }
      ],
      "name": "ExpectedWorkflowNameUpdated",
      "type": "event"
    },
    {
      "anonymous": false,
      "inputs": [
        {
          "indexed": true,
          "internalType": "address",
          "name": "previousForwarder",
          "type": "address"
        },
        {
          "indexed": true,
          "internalType": "address",
          "name": "newForwarder",
          "type": "address"
        }
      ],
      "name": "ForwarderAddressUpdated",
      "type": "event"
    },
    {
      "anonymous": false,
      "inputs": [
        {
          "indexed": true,
          "internalType": "uint256",
          "name": "marketId",
          "type": "uint256"
        },
        {
          "indexed": true,
          "internalType": "address",
          "name": "creator",
          "type": "address"
        },
        {
          "indexed": false,
          "internalType": "uint8",
          "name": "outcomeCount",
          "type": "uint8"
        },
        {
          "indexed": false,
          "internalType": "uint256",
          "name": "startsAt",
          "type": "uint256"
        },
        {
          "indexed": false,
          "internalType": "uint256",
          "name": "finishesAt",
          "type": "uint256"
        },
        {
          "indexed": false,
          "internalType": "address",
          "name": "paymentToken",
          "type": "address"
        },
        {
          "indexed": false,
          "internalType": "bytes32",
          "name": "contentHash",
          "type": "bytes32"
        }
      ],
      "name": "MarketCreated",
      "type": "event"
    },
    {
      "anonymous": false,
      "inputs": [
        {
          "indexed": true,
          "internalType": "uint256",
          "name": "marketId",
          "type": "uint256"
        },
        {
          "indexed": false,
          "internalType": "uint8",
          "name": "winningOutcome",
          "type": "uint8"
        },
        {
          "indexed": false,
          "internalType": "uint256",
          "name": "totalPool",
          "type": "uint256"
        },
        {
          "indexed": false,
          "internalType": "uint256",
          "name": "timestamp",
          "type": "uint256"
        }
      ],
      "name": "MarketResolved",
      "type": "event"
    },
    {
      "anonymous": false,
      "inputs": [
        {
          "indexed": true,
          "internalType": "address",
          "name": "previousOwner",
          "type": "address"
        },
        {
          "indexed": true,
          "internalType": "address",
          "name": "newOwner",
          "type": "address"
        }
      ],
      "name": "OwnershipTransferred",
      "type": "event"
    },
    {
      "anonymous": false,
      "inputs": [
        {
          "indexed": true,
          "internalType": "uint256",
          "name": "predictionId",
          "type": "uint256"
        },
        {
          "indexed": true,
          "internalType": "uint256",
          "name": "marketId",
          "type": "uint256"
        },
        {
          "indexed": true,
          "internalType": "address",
          "name": "predictor",
          "type": "address"
        },
        {
          "indexed": false,
          "internalType": "uint8",
          "name": "outcome",
          "type": "uint8"
        },
        {
          "indexed": false,
          "internalType": "uint256",
          "name": "amount",
          "type": "uint256"
        },
        {
          "indexed": false,
          "internalType": "uint256",
          "name": "timestamp",
          "type": "uint256"
        }
      ],
      "name": "PredictionPlaced",
      "type": "event"
    },
    {
      "anonymous": false,
      "inputs": [
        {
          "indexed": false,
          "internalType": "string",
          "name": "message",
          "type": "string"
        }
      ],
      "name": "SecurityWarning",
      "type": "event"
    },
    {
      "anonymous": false,
      "inputs": [
        {
          "indexed": true,
          "internalType": "uint256",
          "name": "predictionId",
          "type": "uint256"
        },
        {
          "indexed": true,
          "internalType": "address",
          "name": "predictor",
          "type": "address"
        },
        {
          "indexed": false,
          "internalType": "uint256",
          "name": "amount",
          "type": "uint256"
        }
      ],
      "name": "WinningsPaid",
      "type": "event"
    },
    {
      "inputs": [
        {
          "internalType": "uint256",
          "name": "_marketId",
          "type": "uint256"
        },
        {
          "internalType": "uint8",
          "name": "_outcome",
          "type": "uint8"
        },
        {
          "internalType": "uint256",
          "name": "_amount",
          "type": "uint256"
        }
      ],
      "name": "calculatePotentialWinnings",
      "outputs": [
        {
          "internalType": "uint256",
          "name": "",
          "type": "uint256"
        }
      ],
      "stateMutability": "view",
      "type": "function"
    },
    {
      "inputs": [
        {
          "internalType": "uint256",
          "name": "_predictionId",
          "type": "uint256"
        }
      ],
      "name": "calculateWinnings",
      "outputs": [
        {
          "internalType": "uint256",
          "name": "",
          "type": "uint256"
        }
      ],
      "stateMutability": "view",
      "type": "function"
    },
    {
      "inputs": [
        {
          "internalType": "uint8",
          "name": "_outcomeCount",
          "type": "uint8"
        },
        {
          "internalType": "uint256",
          "name": "_startsAt",
          "type": "uint256"
        },
        {
          "internalType": "uint256",
          "name": "_finishesAt",
          "type": "uint256"
        },
        {
          "internalType": "address",
          "name": "_paymentToken",
          "type": "address"
        }
      ],
      "name": "createMarket",
      "outputs": [
        {
          "internalType": "uint256",
          "name": "",
          "type": "uint256"
        }
      ],
      "stateMutability": "nonpayable",
      "type": "function"
    },
    {
      "inputs": [
        {
          "internalType": "uint256",
          "name": "_amount",
          "type": "uint256"
        }
      ],
      "name": "emergencyWithdrawETH",
      "outputs": [],
      "stateMutability": "nonpayable",
      "type": "function"
    },
    {
      "inputs": [
        {
          "internalType": "address",
          "name": "_token",
          "type": "address"
        },
        {
          "internalType": "uint256",
          "name": "_amount",
          "type": "uint256"
        }
      ],
      "name": "emergencyWithdrawToken",
      "outputs": [],
      "stateMutability": "nonpayable",
      "type": "function"
    },
    {
      "inputs": [],
      "name": "getExpectedAuthor",
      "outputs": [
        {
          "internalType": "address",
          "name": "",
          "type": "address"
        }
      ],
      "stateMutability": "view",
      "type": "function"
    },
    {
      "inputs": [],
      "name": "getExpectedWorkflowId",
      "outputs": [
        {
          "internalType": "bytes32",
          "name": "",
          "type": "bytes32"
        }
      ],
      "stateMutability": "view",
      "type": "function"
    },
    {
      "inputs": [],
      "name": "getExpectedWorkflowName",
      "outputs": [
        {
          "internalType": "bytes10",
          "name": "",
          "type": "bytes10"
        }
      ],
      "stateMutability": "view",
      "type": "function"
    },
    {
      "inputs": [],
      "name": "getForwarderAddress",
      "outputs": [
        {
          "internalType": "address",
          "name": "",
          "type": "address"
        }
      ],
      "stateMutability": "view",
      "type": "function"
    },
    {
      "inputs": [
        {
          "internalType": "uint256",
          "name": "_marketId",
          "type": "uint256"
        }
      ],
      "name": "getMarket",
      "outputs": [
        {
          "components": [
            {
              "internalType": "uint256",
              "name": "id",
              "type": "uint256"
            },
            {
              "internalType": "uint8",
              "name": "outcomeCount",
              "type": "uint8"
            },
            {
              "internalType": "uint256[]",
              "name": "outcomePools",
              "type": "uint256[]"
            },
            {
              "internalType": "uint256",
              "name": "totalPool",
              "type": "uint256"
            },
            {
              "internalType": "uint256",
              "name": "startsAt",
              "type": "uint256"
            },
            {
              "internalType": "uint256",
              "name": "finishesAt",
              "type": "uint256"
            },
            {
              "internalType": "uint8",
              "name": "winningOutcome",
              "type": "uint8"
            },
            {
              "internalType": "bool",
              "name": "isResolved",
              "type": "bool"
            },
            {
              "internalType": "address",
              "name": "creator",
              "type": "address"
            },
            {
              "internalType": "address",
              "name": "paymentToken",
              "type": "address"
            },
            {
              "internalType": "bytes32",
              "name": "contentHash",
              "type": "bytes32"
            }
          ],
          "internalType": "struct PredictionMarket.Market",
          "name": "",
          "type": "tuple"
        }
      ],
      "stateMutability": "view",
      "type": "function"
    },
    {
      "inputs": [
        {
          "internalType": "uint256",
          "name": "_marketId",
          "type": "uint256"
        }
      ],
      "name": "getMarketPredictions",
      "outputs": [
        {
          "internalType": "uint256[]",
          "name": "",
          "type": "uint256[]"
        }
      ],
      "stateMutability": "view",
      "type": "function"
    },
    {
      "inputs": [
        {
          "internalType": "uint256",
          "name": "_predictionId",
          "type": "uint256"
        }
      ],
      "name": "getPrediction",
      "outputs": [
        {
          "components": [
            {
              "internalType": "uint256",
              "name": "marketId",
              "type": "uint256"
            },
            {
              "internalType": "address",
              "name": "predictor",
              "type": "address"
            },
            {
              "internalType": "uint8",
              "name": "outcome",
              "type": "uint8"
            },
            {
              "internalType": "uint256",
              "name": "amount",
              "type": "uint256"
            }
          ],
          "internalType": "struct PredictionMarket.Prediction",
          "name": "",
          "type": "tuple"
        }
      ],
      "stateMutability": "view",
      "type": "function"
    },
    {
      "inputs": [
        {
          "internalType": "address",
          "name": "_user",
          "type": "address"
        }
      ],
      "name": "getUserPredictions",
      "outputs": [
        {
          "internalType": "uint256[]",
          "name": "",
          "type": "uint256[]"
        }
      ],
      "stateMutability": "view",
      "type": "function"
    },
    {
      "inputs": [],
      "name": "marketCount",
      "outputs": [
        {
          "internalType": "uint256",
          "name": "",
          "type": "uint256"
        }
      ],
      "stateMutability": "view",
      "type": "function"
    },
    {
      "inputs": [
        {
          "internalType": "uint256",
          "name": "",
          "type": "uint256"
        },
        {
          "internalType": "uint256",
          "name": "",
          "type": "uint256"
        }
      ],
      "name": "marketPredictions",
      "outputs": [
        {
          "internalType": "uint256",
          "name": "",
          "type": "uint256"
        }
      ],
      "stateMutability": "view",
      "type": "function"
    },
    {
      "inputs": [
        {
          "internalType": "uint256",
          "name": "",
          "type": "uint256"
        }
      ],
      "name": "markets",
      "outputs": [
        {
          "internalType": "uint256",
          "name": "id",
          "type": "uint256"
        },
        {
          "internalType": "uint8",
          "name": "outcomeCount",
          "type": "uint8"
        },
        {
          "internalType": "uint256",
          "name": "totalPool",
          "type": "uint256"
        },
        {
          "internalType": "uint256",
          "name": "startsAt",
          "type": "uint256"
        },
        {
          "internalType": "uint256",
          "name": "finishesAt",
          "type": "uint256"
        },
        {
          "internalType": "uint8",
          "name": "winningOutcome",
          "type": "uint8"
        },
        {
          "internalType": "bool",
          "name": "isResolved",
          "type": "bool"
        },
        {
          "internalType": "address",
          "name": "creator",
          "type": "address"
        },
        {
          "internalType": "address",
          "name": "paymentToken",
          "type": "address"
        },
        {
          "internalType": "bytes32",
          "name": "contentHash",
          "type": "bytes32"
        }
      ],
      "stateMutability": "view",
      "type": "function"
    },
    {
      "inputs": [
        {
          "internalType": "bytes",
          "name": "metadata",
          "type": "bytes"
        },
        {
          "internalType": "bytes",
          "name": "report",
          "type": "bytes"
        }
      ],
      "name": "onReport",
      "outputs": [],
      "stateMutability": "nonpayable",
      "type": "function"
    },
    {
      "inputs": [],
      "name": "owner",
      "outputs": [
        {
          "internalType": "address",
          "name": "",
          "type": "address"
        }
      ],
      "stateMutability": "view",
      "type": "function"
    },
    {
      "inputs": [
        {
          "internalType": "uint256",
          "name": "_marketId",
          "type": "uint256"
        },
        {
          "internalType": "uint8",
          "name": "_outcome",
          "type": "uint8"
        },
        {
          "internalType": "uint256",
          "name": "_amount",
          "type": "uint256"
        }
      ],
      "name": "predict",
      "outputs": [],
      "stateMutability": "payable",
      "type": "function"
    },
    {
      "inputs": [],
      "name": "predictionCount",
      "outputs": [
        {
          "internalType": "uint256",
          "name": "",
          "type": "uint256"
        }
      ],
      "stateMutability": "view",
      "type": "function"
    },
    {
      "inputs": [
        {
          "internalType": "uint256",
          "name": "",
          "type": "uint256"
        }
      ],
      "name": "predictions",
      "outputs": [
        {
          "internalType": "uint256",
          "name": "marketId",
          "type": "uint256"
        },
        {
          "internalType": "address",
          "name": "predictor",
          "type": "address"
        },
        {
          "internalType": "uint8",
          "name": "outcome",
          "type": "uint8"
        },
        {
          "internalType": "uint256",
          "name": "amount",
          "type": "uint256"
        }
      ],
      "stateMutability": "view",
      "type": "function"
    },
    {
      "inputs": [],
      "name": "renounceOwnership",
      "outputs": [],
      "stateMutability": "nonpayable",
      "type": "function"
    },
    {
      "inputs": [
        {
          "internalType": "uint256",
          "name": "_marketId",
          "type": "uint256"
        },
        {
          "internalType": "uint8",
          "name": "_winningOutcome",
          "type": "uint8"
        }
      ],
      "name": "resolveMarket",
      "outputs": [],
      "stateMutability": "nonpayable",
      "type": "function"
    },
    {
      "inputs": [
        {
          "internalType": "address",
          "name": "_author",
          "type": "address"
        }
      ],
      "name": "setExpectedAuthor",
      "outputs": [],
      "stateMutability": "nonpayable",
      "type": "function"
    },
    {
      "inputs": [
        {
          "internalType": "bytes32",
          "name": "_id",
          "type": "bytes32"
        }
      ],
      "name": "setExpectedWorkflowId",
      "outputs": [],
      "stateMutability": "nonpayable",
      "type": "function"
    },
    {
      "inputs": [
        {
          "internalType": "string",
          "name": "_name",
          "type": "string"
        }
      ],
      "name": "setExpectedWorkflowName",
      "outputs": [],
      "stateMutability": "nonpayable",
      "type": "function"
    },
    {
      "inputs": [
        {
          "internalType": "address",
          "name": "_forwarder",
          "type": "address"
        }
      ],
      "name": "setForwarderAddress",
      "outputs": [],
      "stateMutability": "nonpayable",
      "type": "function"
    },
    {
      "inputs": [
        {
          "internalType": "bytes4",
          "name": "interfaceId",
          "type": "bytes4"
        }
      ],
      "name": "supportsInterface",
      "outputs": [
        {
          "internalType": "bool",
          "name": "",
          "type": "bool"
        }
      ],
      "stateMutability": "view",
      "type": "function"
    },
    {
      "inputs": [
        {
          "internalType": "address",
          "name": "newOwner",
          "type": "address"
        }
      ],
      "name": "transferOwnership",
      "outputs": [],
      "stateMutability": "nonpayable",
      "type": "function"
    },
    {
      "inputs": [
        {
          "internalType": "address",
          "name": "",
          "type": "address"
        },
        {
          "internalType": "uint256",
          "name": "",
          "type": "uint256"
        }
      ],
      "name": "userPredictions",
      "outputs": [
        {
          "internalType": "uint256",
          "name": "",
          "type": "uint256"
        }
      ],
      "stateMutability": "view",
      "type": "function"
    }
  ],
  "bytecode": "0x608060405234801561000f575f5ffd5b50604051612e0d380380612e0d83398101604081905261002e91610122565b80338061005457604051631e4fbdf760e01b81525f600482015260240160405180910390fd5b61005d816100d3565b506001600160a01b0381166100845760405162e0775560e61b815260040160405180910390fd5b600180546001600160a01b0319166001600160a01b0383169081179091556040515f907f039ad854736757070884dd787ef1a7f58db33546639d1f3efddcf4a33fb8997e908290a3505061014f565b5f80546001600160a01b038381166001600160a01b0319831681178455604051919092169283917f8be0079c531659141344cd1fd0a4f28419497f9722a3daafe3b4186f6b6457e09190a35050565b5f60208284031215610132575f5ffd5b81516001600160a01b0381168114610148575f5ffd5b9392505050565b612cb18061015c5f395ff3fe608060405260043610610188575f3560e01c8063a4c3b091116100d4578063d777cc6d11610083578063d777cc6d14610577578063df55406e14610596578063eb44fdd3146105b5578063ec979082146105e1578063f2fde38b146105f6578063f5c793ef14610615578063f6c3317914610629578063fe83bece14610648575f5ffd5b8063a4c3b091146103c9578063a619d818146103e8578063b1283e771461041a578063bc1fc27a146104fb578063c285f8531461051a578063c3c44ac214610539578063d60c884b14610558575f5ffd5b806350ae97161161013b57806350ae9716146102fb5780636b792c4b146103105780636dffbcb71461032f578063715018a61461034e578063805f2132146103625780638da5cb5b146103815780638e0596a214610395578063a2e279eb146103aa575f5ffd5b80624fbbb01461018c57806301ffc9a7146102115780633397cf67146102405780633441856f146102665780633b830b64146102835780633c86e61b146102b057806341fdb485146102dc575b5f5ffd5b348015610197575f5ffd5b506101dc6101a636600461257c565b60076020525f908152604090208054600182015460029092015490916001600160a01b03811691600160a01b90910460ff169084565b604080519485526001600160a01b03909316602085015260ff9091169183019190915260608201526080015b60405180910390f35b34801561021c575f5ffd5b5061023061022b366004612593565b610718565b6040519015158152602001610208565b34801561024b575f5ffd5b506002546001600160a01b03165b60405161020891906125c1565b348015610271575f5ffd5b506001546001600160a01b0316610259565b34801561028e575f5ffd5b506102a261029d3660046125fe565b61074e565b604051908152602001610208565b3480156102bb575f5ffd5b506102cf6102ca36600461257c565b61076e565b6040516102089190612643565b3480156102e7575f5ffd5b506102a26102f6366004612685565b6107f9565b61030e610309366004612685565b6108e9565b005b34801561031b575f5ffd5b5061030e61032a36600461257c565b610b42565b34801561033a575f5ffd5b506102a26103493660046126b8565b610c21565b348015610359575f5ffd5b5061030e610c4c565b34801561036d575f5ffd5b5061030e61037c36600461271d565b610c5f565b34801561038c575f5ffd5b50610259610e90565b3480156103a0575f5ffd5b506102a260055481565b3480156103b5575f5ffd5b506102a26103c436600461257c565b610e9e565b3480156103d4575f5ffd5b5061030e6103e3366004612789565b610f54565b3480156103f3575f5ffd5b50600254600160a01b900460b01b6040516001600160b01b03199091168152602001610208565b348015610425575f5ffd5b5061049c61043436600461257c565b600660208190525f918252604090912080546001820154600383015460048401546005850154958501546007860154600890960154949660ff94851696939592949093828216936101008404909216926001600160a01b03620100009091048116929116908a565b604080519a8b5260ff998a1660208c01528a019790975260608901959095526080880193909352941660a086015292151560c08501526001600160a01b0392831660e08501529190911661010083015261012082015261014001610208565b348015610506575f5ffd5b5061030e6105153660046127b3565b6110fb565b348015610525575f5ffd5b506102cf6105343660046127f2565b6112d5565b348015610544575f5ffd5b5061030e61055336600461257c565b61133e565b348015610563575f5ffd5b5061030e6105723660046127f2565b61137e565b348015610582575f5ffd5b5061030e6105913660046127f2565b6113d7565b3480156105a1575f5ffd5b5061030e6105b036600461280d565b6114cd565b3480156105c0575f5ffd5b506105d46105cf36600461257c565b6115d3565b6040516102089190612871565b3480156105ec575f5ffd5b506102a260045481565b348015610601575f5ffd5b5061030e6106103660046127f2565b611752565b348015610620575f5ffd5b506003546102a2565b348015610634575f5ffd5b506102a2610643366004612789565b61178f565b348015610653575f5ffd5b506106d961066236600461257c565b604080516080810182525f808252602082018190529181018290526060810191909152505f9081526007602090815260409182902082516080810184528154815260018201546001600160a01b03811693820193909352600160a01b90920460ff1692820192909252600290910154606082015290565b6040516102089190815181526020808301516001600160a01b03169082015260408083015160ff16908201526060918201519181019190915260800190565b5f6001600160e01b0319821663402f909960e11b148061074857506001600160e01b031982166301ffc9a760e01b145b92915050565b5f6107576117a8565b61076585858585335f6117da565b95945050505050565b606081600454811061079b5760405162461bcd60e51b815260040161079290612935565b60405180910390fd5b5f83815260096020908152604091829020805483518184028101840190945280845290918301828280156107ec57602002820191905f5260205f20905b8154815260200190600101908083116107d8575b5050505050915050919050565b5f83600454811061081c5760405162461bcd60e51b815260040161079290612935565b5f858152600660205260409020600181015460ff908116908616106108535760405162461bcd60e51b815260040161079290612964565b5f84116108725760405162461bcd60e51b81526004016107929061298d565b5f84826002018760ff168154811061088c5761088c6129c4565b905f5260205f20015461089f91906129ec565b90505f8583600301546108b291906129ec565b9050815f036108c6575f94505050506108e1565b816108d182886129ff565b6108db9190612a16565b94505050505b509392505050565b82600454811061090b5760405162461bcd60e51b815260040161079290612935565b5f84815260066020819052604090912001548490610100900460ff16156109445760405162461bcd60e51b815260040161079290612a35565b5f858152600660205260409020600481015442101561099a5760405162461bcd60e51b815260206004820152601260248201527113585c9ad95d081b9bdd081cdd185c9d195960721b6044820152606401610792565b80600501544211156109e05760405162461bcd60e51b815260206004820152600f60248201526e13585c9ad95d08199a5b9a5cda1959608a1b6044820152606401610792565b600181015460ff90811690861610610a0a5760405162461bcd60e51b815260040161079290612964565b60078101545f906001600160a01b0316610a6f575f3411610a685760405162461bcd60e51b8152602060048201526018602482015277135d5cdd081cd95b9908115512081d1bc81c1c99591a58dd60421b6044820152606401610792565b5034610b2d565b3415610ac75760405162461bcd60e51b815260206004820152602160248201527f446f206e6f742073656e642045544820666f7220746f6b656e206d61726b65746044820152607360f81b6064820152608401610792565b5f8511610b105760405162461bcd60e51b8152602060048201526017602482015276135d5cdd081cdc1958da599e4818995d08185b5bdd5b9d604a1b6044820152606401610792565b5060078101548490610b2d906001600160a01b0316333084611a20565b610b3933888884611a87565b50505050505050565b610b4a6117a8565b5f8111610b695760405162461bcd60e51b81526004016107929061298d565b80471015610bb95760405162461bcd60e51b815260206004820152601d60248201527f496e73756666696369656e7420636f6e74726163742062616c616e63650000006044820152606401610792565b610bd481610bc5610e90565b6001600160a01b031690611d31565b610bdc610e90565b6001600160a01b03167f20f907b58305c7b76035bc03b26f32b1c4f6560f96be6f3bb54c5c848a2d4ddd82604051610c1691815260200190565b60405180910390a250565b6009602052815f5260405f208181548110610c3a575f80fd5b905f5260205f20015f91509150505481565b610c546117a8565b610c5d5f611dbd565b565b6001546001600160a01b031615801590610c8457506001546001600160a01b03163314155b15610cb75760015460405163708986dd60e11b81523360048201526001600160a01b039091166024820152604401610792565b600354151580610cd157506002546001600160a01b031615155b80610cf15750600254600160a01b900460b01b6001600160b01b03191615155b15610e80575f5f5f610d3787878080601f0160208091040260200160405190810160405280939291908181526020018383808284375f92019190915250611e0c92505050565b600354929550909350915015801590610d5257506003548314155b15610d7e57600354604051634dfd1cdd60e11b8152610792918591600401918252602082015260400190565b6002546001600160a01b031615801590610da657506002546001600160a01b03828116911614155b15610ddb57600254604051631715315f60e31b81526001600160a01b0380841660048301529091166024820152604401610792565b600254600160a01b900460b01b6001600160b01b03191615610e7c576002546001600160a01b0316610e2057604051634847901160e01b815260040160405180910390fd5b6002546001600160b01b0319838116600160a01b90920460b01b1614610e7c5760025460405163362304d360e11b81526001600160b01b03198481166004830152600160a01b90920460b01b9091166024820152604401610792565b5050505b610e8a8282611e25565b50505050565b5f546001600160a01b031690565b5f8181526007602090815260408083208054845260069283905290832091820154909190610100900460ff161580610eec575060068101546001830154600160a01b900460ff908116911614155b15610efa57505f9392505050565b60068101546002820180545f9260ff16908110610f1957610f196129c4565b905f5260205f2001549050805f03610f3557505f949350505050565b8082600301548460020154610f4a91906129ff565b6107659190612a16565b610f5c6117a8565b6001600160a01b038216610faa5760405162461bcd60e51b8152602060048201526015602482015274496e76616c696420746f6b656e206164647265737360581b6044820152606401610792565b5f8111610fc95760405162461bcd60e51b81526004016107929061298d565b6040516370a0823160e01b8152829082906001600160a01b038316906370a0823190610ff99030906004016125c1565b602060405180830381865afa158015611014573d5f5f3e3d5ffd5b505050506040513d601f19601f820116820180604052508101906110389190612a66565b10156110865760405162461bcd60e51b815260206004820152601a60248201527f496e73756666696369656e7420746f6b656e2062616c616e63650000000000006044820152606401610792565b6110a2611091610e90565b6001600160a01b0383169084612026565b826001600160a01b03166110b4610e90565b6001600160a01b03167fda0612d7ca9ff90ca7143a6021ba8938994f8d045b2834ae585fd07b27ea697c846040516110ee91815260200190565b60405180910390a3505050565b6111036117a8565b600254600160a01b900460b01b5f8290036111665760028054600160a01b600160f01b03191690556040515f906001600160b01b03198316907f1e7ddd09d504c82dcfc784a464b167469f5aad967606ec4822d848ef9141dfa5908390a3505050565b5f60028484604051611179929190612a7d565b602060405180830381855afa158015611194573d5f5f3e3d5ffd5b5050506040513d601f19601f820116820180604052508101906111b79190612a66565b90505f6111e4826040516020016111d091815260200190565b604051602081830303815290604052612057565b60408051600a8082528183019092529192505f91906020820181803683370190505090505f5b600a81101561126057828181518110611225576112256129c4565b602001015160f81c60f81b828281518110611242576112426129c4565b60200101906001600160f81b03191690815f1a90535060010161120a565b5061126a81612aa0565b60028054600160a01b600160f01b031916600160a01b60b093841c81029190911791829055604051910490911b6001600160b01b031990811691908616907f1e7ddd09d504c82dcfc784a464b167469f5aad967606ec4822d848ef9141dfa5905f90a3505050505050565b6001600160a01b0381165f9081526008602090815260409182902080548351818402810184019094528084526060939283018282801561133257602002820191905f5260205f20905b81548152602001906001019080831161131e575b50505050509050919050565b6113466117a8565b6003805490829055604051829082907f0dbedcdf21925e053b4c574eae180d7f2883235ab4976ecc0873598a2a999b03905f90a35050565b6113866117a8565b600280546001600160a01b038381166001600160a01b0319831681179093556040519116919082907f3321cda85c145617e47418aa14255e9dcbec53a753778e57591703b89a3cad31905f90a35050565b6113df6117a8565b6001546001600160a01b0390811690821661147d577f704da7db165c79c1e33d542c079333bbde970a733032d2f95fec8fb7d770cbf76040516114749060208082526038908201527f466f7277617264657220616464726573732073657420746f207a65726f202d20604082015277636f6e7472616374206973206e6f7720494e53454355524560401b606082015260800190565b60405180910390a15b600180546001600160a01b0319166001600160a01b0384811691821790925560405190918316907f039ad854736757070884dd787ef1a7f58db33546639d1f3efddcf4a33fb8997e905f90a35050565b6114d56117a8565b8160045481106114f75760405162461bcd60e51b815260040161079290612935565b5f83815260066020819052604090912001548390610100900460ff16156115305760405162461bcd60e51b815260040161079290612a35565b5f84815260066020819052604090912001546201000090046001600160a01b0316331461159a5760405162461bcd60e51b81526020600482015260186024820152774f6e6c792063726561746f722063616e207265736f6c766560401b6044820152606401610792565b5f8481526006602052604090206005015442116115c95760405162461bcd60e51b815260040161079290612ade565b610e8a8484612214565b6116406040518061016001604052805f81526020015f60ff168152602001606081526020015f81526020015f81526020015f81526020015f60ff1681526020015f151581526020015f6001600160a01b031681526020015f6001600160a01b031681526020015f81525090565b8160045481106116625760405162461bcd60e51b815260040161079290612935565b5f8381526006602090815260409182902082516101608101845281548152600182015460ff16818401526002820180548551818602810186018752818152939592948694938601939291908301828280156116da57602002820191905f5260205f20905b8154815260200190600101908083116116c6575b5050509183525050600382015460208201526004820154604082015260058201546060820152600682015460ff8082166080840152610100808304909116151560a0840152620100009091046001600160a01b0390811660c084015260078401541660e0830152600890920154910152949350505050565b61175a6117a8565b6001600160a01b038116611783575f604051631e4fbdf760e01b815260040161079291906125c1565b61178c81611dbd565b50565b6008602052815f5260405f208181548110610c3a575f80fd5b336117b1610e90565b6001600160a01b031614610c5d573360405163118cdaa760e01b815260040161079291906125c1565b5f60028760ff16101561182f5760405162461bcd60e51b815260206004820152601d60248201527f4d7573742068617665206174206c656173742032206f7574636f6d65730000006044820152606401610792565b4286101561187f5760405162461bcd60e51b815260206004820152601c60248201527f53746172742074696d65206d75737420626520696e20667574757265000000006044820152606401610792565b8585116118ce5760405162461bcd60e51b815260206004820152601f60248201527f46696e6973682074696d65206d757374206265206166746572207374617274006044820152606401610792565b600480545f91826118de83612b0f565b909155505f81815260066020526040902081815560018101805460ff191660ff8c169081179091559192509067ffffffffffffffff81111561192257611922612a8c565b60405190808252806020026020018201604052801561194b578160200160208202803683370190505b50805161196291600284019160209091019061251f565b505f600382015560048101889055600581018790556006810180546001600160b01b031916620100006001600160a01b03888116918202929092179092556007830180546001600160a01b0319169189169182179055600883018690556040805160ff8d168152602081018c90529081018a905260608101919091526080810186905283907fc87e8fcd7fc138f6032a3647018e571f8b4576e49f5578278804db0825eb8d4c9060a00160405180910390a350979650505050505050565b6040516001600160a01b038481166024830152838116604483015260648201839052610e8a9186918216906323b872dd906084015b604051602081830303815290604052915060e01b6020820180516001600160e01b03838183161783525050505061245f565b5f8381526006602052604090206001600160a01b038516611ae65760405162461bcd60e51b8152602060048201526019602482015278496e76616c696420707265646963746f72206164647265737360381b6044820152606401610792565b600181015460ff90811690841610611b105760405162461bcd60e51b815260040161079290612964565b5f8211611b2f5760405162461bcd60e51b81526004016107929061298d565b8060040154421015611b835760405162461bcd60e51b815260206004820152601a60248201527f4d61726b657420686173206e6f742073746172746564207965740000000000006044820152606401610792565b80600501544210611bcc5760405162461bcd60e51b815260206004820152601360248201527213585c9ad95d081a185cc8199a5b9a5cda1959606a1b6044820152606401610792565b600554604080516080810182528681526001600160a01b03808916602080840182815260ff808b16868801818152606088018c81525f8b8152600787528a812099518a5594516001808b0180549451909616600160a01b026001600160a81b031990941691909916179190911790925590516002968701559281526008825285812080548086018255908252828220018790558a81526009825294852080549384018155855290932001839055830180548592908110611c8e57611c8e6129c4565b905f5260205f20015f828254611ca491906129ec565b9250508190555082826003015f828254611cbe91906129ec565b909155505060058054905f611cd283612b0f565b90915550506040805160ff8616815260208101859052428183015290516001600160a01b03881691879184917ff71596fe917277a92c152c720b67dda8f6ce2c015dcb9d41677b1f6b54d4ea3a919081900360600190a4505050505050565b80471015611d5b5760405163cf47918160e01b815247600482015260248101829052604401610792565b5f5f836001600160a01b0316836040515f6040518083038185875af1925050503d805f8114611da5576040519150601f19603f3d011682016040523d82523d5f602084013e611daa565b606091505b509150915081610e8a57610e8a816124c2565b5f80546001600160a01b038381166001600160a01b0319831681178455604051919092169283917f8be0079c531659141344cd1fd0a4f28419497f9722a3daafe3b4186f6b6457e09190a35050565b60208101516040820151604a83015160601c9193909250565b5f611e336020828486612b27565b810190611e409190612b4e565b90508060ff165f03611ee6575f80808080611e5d87890189612b67565b5f84815260066020526040902060070154949a50929850909650945092506001600160a01b038084169116149050611ed05760405162461bcd60e51b81526020600482015260166024820152750a0c2f2dacadce840e8ded6cadc40dad2e6dac2e8c6d60531b6044820152606401610792565b611edc85858585611a87565b5050505050505050565b8060ff16600103611f9c575f80611eff84860186612bcf565b92509250506004548210611f255760405162461bcd60e51b815260040161079290612935565b5f8281526006602081905260409091200154610100900460ff1615611f5c5760405162461bcd60e51b815260040161079290612a35565b5f828152600660205260409020600501544211611f8b5760405162461bcd60e51b815260040161079290612ade565b611f958282612214565b5050505050565b8060ff16600203611fe0575f8080808080611fb9888a018a612c08565b96509650965096509650965050611fd48686868686866117da565b50505050505050505050565b60405162461bcd60e51b8152602060048201526016602482015275496e76616c6964206f7065726174696f6e207479706560501b6044820152606401610792565b505050565b6040516001600160a01b0383811660248301526044820183905261202191859182169063a9059cbb90606401611a55565b60605f8251600261206891906129ff565b67ffffffffffffffff81111561208057612080612a8c565b6040519080825280601f01601f1916602001820160405280156120aa576020820181803683370190505b5090505f5b835181101561220d576040518060400160405280601081526020016f181899199a1a9b1b9c1cb0b131b232b360811b81525060048583815181106120f5576120f56129c4565b016020015182516001600160f81b031990911690911c60f81c90811061211d5761211d6129c4565b01602001516001600160f81b031916826121388360026129ff565b81518110612148576121486129c4565b60200101906001600160f81b03191690815f1a9053506040518060400160405280601081526020016f181899199a1a9b1b9c1cb0b131b232b360811b815250848281518110612199576121996129c4565b602091010151815160f89190911c600f169081106121b9576121b96129c4565b01602001516001600160f81b031916826121d48360026129ff565b6121df9060016129ec565b815181106121ef576121ef6129c4565b60200101906001600160f81b03191690815f1a9053506001016120af565b5092915050565b5f8281526006602052604090206001015460ff9081169082161061224a5760405162461bcd60e51b815260040161079290612964565b5f82815260066020818152604092839020918201805460ff861661ffff19909116811761010017909155600383015484519182529181019190915242928101929092529083907f503d167e0856e2f40aaac2dac6550f9543efb837691cc189cde53b0172e4f32b9060600160405180910390a25f8381526009602090815260408083208054825181850281018501909352808352919290919083018282801561231057602002820191905f5260205f20905b8154815260200190600101908083116122fc575b505050505090505f826002018460ff1681548110612330576123306129c4565b905f5260205f2001549050805f03612349575050505050565b5f5b8251811015612457575f60075f85848151811061236a5761236a6129c4565b602002602001015181526020019081526020015f2090508560ff168160010160149054906101000a900460ff1660ff160361244e575f6123c28584815181106123b5576123b56129c4565b6020026020010151610e9e565b600787015460018401549192506123e6916001600160a01b039182169116836124ea565b600182015485516001600160a01b039091169086908590811061240b5761240b6129c4565b60200260200101517f0c1d0b01dca2a1254c5ae35fc7cc488d6369384dd03afd78bd9484231d4a66ec8360405161244491815260200190565b60405180910390a3505b5060010161234b565b505050505050565b5f5f60205f8451602086015f885af18061247e576040513d5f823e3d81fd5b50505f513d915081156124955780600114156124a2565b6001600160a01b0384163b155b15610e8a5783604051635274afe760e01b815260040161079291906125c1565b8051156124d157805160208201fd5b60405163d6bda27560e01b815260040160405180910390fd5b6001600160a01b03831661250b576120216001600160a01b03831682611d31565b6120216001600160a01b0384168383612026565b828054828255905f5260205f20908101928215612558579160200282015b8281111561255857825182559160200191906001019061253d565b50612564929150612568565b5090565b5b80821115612564575f8155600101612569565b5f6020828403121561258c575f5ffd5b5035919050565b5f602082840312156125a3575f5ffd5b81356001600160e01b0319811681146125ba575f5ffd5b9392505050565b6001600160a01b0391909116815260200190565b803560ff811681146125e5575f5ffd5b919050565b6001600160a01b038116811461178c575f5ffd5b5f5f5f5f60808587031215612611575f5ffd5b61261a856125d5565b935060208501359250604085013591506060850135612638816125ea565b939692955090935050565b602080825282518282018190525f918401906040840190835b8181101561267a57835183526020938401939092019160010161265c565b509095945050505050565b5f5f5f60608486031215612697575f5ffd5b833592506126a7602085016125d5565b929592945050506040919091013590565b5f5f604083850312156126c9575f5ffd5b50508035926020909101359150565b5f5f83601f8401126126e8575f5ffd5b50813567ffffffffffffffff8111156126ff575f5ffd5b602083019150836020828501011115612716575f5ffd5b9250929050565b5f5f5f5f60408587031215612730575f5ffd5b843567ffffffffffffffff811115612746575f5ffd5b612752878288016126d8565b909550935050602085013567ffffffffffffffff811115612771575f5ffd5b61277d878288016126d8565b95989497509550505050565b5f5f6040838503121561279a575f5ffd5b82356127a5816125ea565b946020939093013593505050565b5f5f602083850312156127c4575f5ffd5b823567ffffffffffffffff8111156127da575f5ffd5b6127e6858286016126d8565b90969095509350505050565b5f60208284031215612802575f5ffd5b81356125ba816125ea565b5f5f6040838503121561281e575f5ffd5b8235915061282e602084016125d5565b90509250929050565b5f8151808452602084019350602083015f5b82811015612867578151865260209586019590910190600101612849565b5093949350505050565b60208152815160208201525f6020830151612891604084018260ff169052565b50604083015161016060608401526128ad610180840182612837565b905060608401516080840152608084015160a084015260a084015160c084015260c08401516128e160e085018260ff169052565b5060e0840151801515610100850152506101008401516001600160a01b038116610120850152506101208401516001600160a01b038116610140850152506101408401516101608401528091505092915050565b60208082526015908201527413585c9ad95d08191bd95cc81b9bdd08195e1a5cdd605a1b604082015260600190565b6020808252600f908201526e496e76616c6964206f7574636f6d6560881b604082015260600190565b6020808252601d908201527f416d6f756e74206d7573742062652067726561746572207468616e2030000000604082015260600190565b634e487b7160e01b5f52603260045260245ffd5b634e487b7160e01b5f52601160045260245ffd5b80820180821115610748576107486129d8565b8082028115828204841417610748576107486129d8565b5f82612a3057634e487b7160e01b5f52601260045260245ffd5b500490565b60208082526017908201527613585c9ad95d08185b1c9958591e481c995cdbdb1d9959604a1b604082015260600190565b5f60208284031215612a76575f5ffd5b5051919050565b818382375f9101908152919050565b634e487b7160e01b5f52604160045260245ffd5b805160208201516001600160b01b031981169190600a821015612ad7576001600160b01b0319600a83900360031b81901b82161692505b5050919050565b60208082526017908201527613585c9ad95d081b9bdd08199a5b9a5cda1959081e595d604a1b604082015260600190565b5f60018201612b2057612b206129d8565b5060010190565b5f5f85851115612b35575f5ffd5b83861115612b41575f5ffd5b5050820193919092039150565b5f60208284031215612b5e575f5ffd5b6125ba826125d5565b5f5f5f5f5f5f60c08789031215612b7c575f5ffd5b612b85876125d5565b95506020870135612b95816125ea565b945060408701359350612baa606088016125d5565b92506080870135915060a0870135612bc1816125ea565b809150509295509295509295565b5f5f5f60608486031215612be1575f5ffd5b612bea846125d5565b925060208401359150612bff604085016125d5565b90509250925092565b5f5f5f5f5f5f5f60e0888a031215612c1e575f5ffd5b612c27886125d5565b9650612c35602089016125d5565b955060408801359450606088013593506080880135612c53816125ea565b925060a0880135612c63816125ea565b96999598509396929591949193505060c0909101359056fea264697066735822122028be5261b28a833cfc291b1b816567d01457e484b8b4b5a14c095565de3c433764736f6c634300081c0033",
  "linkReferences": {},
  "deployedLinkReferences": {},
  "immutableReferences": {},
  "inputSourceName": "project/contracts/PredictionMarket.sol",
  "buildInfoId": "solc-0_8_28-5fe32a81f49055e4a794b7382d90844f2a38242e"
}